:100000000C94FB331895000018950000189500001B
:10001000189500001895000018950000189500002C
:10002000189500001895000018950000189500001C
:10003000189500001895000018950000189500000C
:1000400018950000189500001895000018950000FC
:100050001895000018950000189500000C94900069
:1000600018950000189500001895000018950000DC
:10007000189500000C94C50818950000189500000C
:1000800018950000189500001895000018950000BC
:1000900018950000189500001895000018950000AC
:1000A0001895000018950000189500000F931F93F5
:1000B0000BE91FE001501040E9F7000000001F911C
:1000C0000F910F931F930CE91FE001501040E9F7C7
:1000D0000000000000001F910F910150104089F7AF
:1000E000000008952F936FD00E94F4082F91089577
:1000F00003E004BD0AE005BD0EE407BD00916E00FB
:10010000016000936E000895EF93FF9300E010E00C
:10011000E0E0F2E001931A95E9F7FF91EF9108957D
:100120000F931F930FB70F93109100021395109325
:1001300000021F3F29F00F910FBF1F910F911895DB
:10014000D1DFF9CF0091110606950091030208F462
:100150000395000F2BF00DF0039500930302089513
:10016000DDF3FBCF32600091080200930502089591
:100170000895AF93BF930091230611E001270093E8
:10018000230607D00091090200930602BF91AF91A8
:100190000895A3E3B6E00C910F3F09F40895083EDB
:1001A00018F411E001270C935096F5CFEF93FF93CD
:1001B000E4E0F2E023E000E001932A95E9F7FF9103
:1001C000EF910895089500910402015020F00093EA
:1001D000040209F4CDDF00910502015020F00093E4
:1001E000050209F4BFDF00910602015020F00093E0
:1001F000060209F4BEDF0895EF93FF93CF93DF93D8
:10020000CDE0D2E0E0E0F4E000E00993E150F0401E
:10021000E1F7DF91CF91FF91EF910895EF93FF9375
:10022000CF93DF9305E121D3182D00910B02101B12
:10023000012F1BD31A0D1A95012F17D305E715D3DC
:1002400000E013D30FE311D3CDE0D2E0E0E0FA2DCC
:10025000F695E795F695E7955C9A09910EBD000035
:10026000000000000000000000000000000000008E
:10027000000000000000E150F04079F70DB507FFE5
:10028000FDCFDF91CF91FF91EF910895EF5FFF4F89
:10029000BEC00F93159110FF04C0022D11FD032D58
:1002A00003C0002D11FD012D09930F9108950F93A7
:1002B000F695E7951491EE1FFF1FE0FF129500E001
:1002C00013FF07C012FD006E11FD0C6110FD0360ED
:1002D0000883CF5FDF4FEF5FFF4F0F9108950F93BC
:1002E000159100E017FF07C016FD006E15FD0C61AB
:1002F00014FD03600883CF5FDF4F00E013FF07C0EA
:1003000012FD006E11FD0C6110FD03600883CF5FCC
:10031000DF4F0F9108950F93F695E7951491EE1F17
:10032000FF1FE0FF129500E013FF06C012FD006EF4
:1003300011FD0C6110FD03600993EF5FFF4F0F91FA
:1003400008950F93159100E017FF06C016FD006E8B
:1003500015FD0C6114FD0360099300E013FF06C056
:1003600012FD006E11FD0C6110FD036009930F91E9
:10037000089500910A02083E08F008958819803017
:1003800009F44BC08A150CF00895813F0CF40895D0
:10039000991990340CF00895913F0CF40895E2E21D
:1003A000F3E100E010910A0216950795E00FF11FA6
:1003B000EE0FFF1F00E10F9380306CF18A1510F0F3
:1003C0000F910895CDE0D2E000E0182F1695079523
:1003D00016950795C00FD11F903024F0092F10E01B
:1003E000C00FD11F36FD0EC000E1903408F044C0AC
:1003F0005EDF93950A95C9F7905183950F910A9501
:10040000D1F6089500E1903408F040CF84DF939551
:100410000A95C9F7F1CF7096F0CF10E1A11609F057
:10042000B7CF99199F3208F0B4CFE2E2F3E100E0D0
:1004300010910A0216950795E00FF11FCDE0D2E06A
:10044000092F10E0C00FD11F36FD0BC000E10F9344
:1004500008E045DF0A95E9F7E0960F910A95B9F7AC
:10046000089500E10F9308E06CDF0A95E9F7E09644
:100470000F910A95B9F70895EF5FFF4FBACFEF9349
:10048000FF93CF93DF9307E8F0D103E010910D06BF
:10049000011B08F400E0000F000FE7D180910B0270
:1004A000807F90910C02907F90900C02082F109109
:1004B0000B02011B00302CF4005FA02E80900B0279
:1004C0000CC0003638F5003528F000560195A02EF6
:1004D000882E03C000E1A02E882E306405E00F9323
:1004E000E0E0F1E0082F0295092B10E0E00FF11F8A
:1004F000008100930A028F939F933BDF9F918F911E
:10050000905F0F910A9559F73F7B14D087DE905585
:10051000805FCACFDF91CF91FF91EF91089505E2FF
:10052000A4D100E0A2D100E0A0D10FE59ED10FE35D
:100530009CD108958F939F9316D026D031D051D05F
:1005400000912406003819F0C6D06DD099D00091E2
:100550002406003829F400911006003009F4D3D0A5
:100560009F918F910895A3E4B7E01D911F3F09F477
:1005700008950D901D9004E0101A802D912D109378
:100580000A02F7DE1096F1CF009126060450809102
:100590002506902F0091230600930A02EADE0895B3
:1005A000C3E2D6E0609618811F3FD1F0183ED1F328
:1005B00009801A8004E0101ACF93DF93802D912DCB
:1005C00010930A02D6DEDF91CF910D85003051F3F2
:1005D0001CE0111A1DE4802D912D10930A02C9DE32
:1005E000089500913507045080913407902F0091B1
:1005F000330700930A02BDDE009139070450809151
:100600003807902F0091370700930A02B2DE00915D
:100610003D07045080913C07902F00913B070093C9
:100620000A02A7DE0895009125060452002E0091CB
:100630002606045E102E00912C06003061F00F9308
:10064000802D912D0EE400930A0293DE15E0010E39
:100650000F910A95A1F700912B0610912C06011B12
:10066000003009F408950F93802D912D0FE400932D
:100670000A027FDE15E0010E0F910A95A1F7089599
:10068000009125060C5D002E009126060C5E102EB2
:1006900000912F060F93802D912D0EE400930A02F6
:1006A00068DE15E0011A0F910A95A1F700912E0658
:1006B00010912F06011B003009F408950F93802D2F
:1006C000912D0FE400930A0254DE15E0011A0F91F8
:1006D0000A95A1F70895009125060852002E009171
:1006E0002606085E102E802D912D0CE400930A0240
:1006F00040DE10E5010E802D912D00912D06009316
:100700000A0237DE0895009025061FE1011A1090B5
:10071000260619E0110E802D912D04E000930A02A7
:1007200028DE10E1010E802D912D05E000930A02D4
:1007300020DE10E1010E802D912D06E000930A02CB
:1007400018DE10E1010E802D912D07E000930A02C2
:1007500010DE1EE1011A18E0110E802D912D00E02F
:1007600000930A0206DE10E1010E802D912D01E0BA
:1007700000930A02FEDD10E1010E802D912D02E0B2
:1007800000930A02F6DD10E1010E802D912D03E0A9
:1007900000930A02EEDD0895219A229A01E00DBD30
:1007A0000CE50CBD569A549A579A5F9A09E010E0EE
:1007B0007DDC5F9809E010E079DC5F9A0EEA55D0A5
:1007C00001E853D00FEF51D002E84FD00FEF4DD0DA
:1007D00003E84BD00FEF49D007E847D00FE045D0F2
:1007E0000AE843D004E641D00BE83FD008E73DD00B
:1007F0000CE83BD004E639D000EA37D007E335D027
:1008000001EA33D000E031D002EA2FD000E02DD051
:1008100004EA2BD008EA29D00FE327D00DEA25D02F
:100820000EE823D000EB21D000E01FD001EB1DD05B
:1008300001E31BD003EB19D000EF17D00BEB15D061
:100840000AE313D00EEB11D00EE30FD00EE20DD061
:100850000FEA0BD064DE07EC10E028DC08955C9A08
:100860000EBD0DB507FFFDCF08955C980EBD0DB50B
:1008700007FFFDCF089524250E0E08240000000078
:100880000101FF0000FF0C0D06060C140000010121
:100890000000FF0001FF0D0E0606081430000101E4
:1008A0000001FF0001FF0D0F06080C1C00000101F4
:1008B0000101FF0001FF090B0C0C101C00000001DE
:1008C000010102040101080906080C1400000102DC
:1008D0000102FF0001FF090A0808081431000202A2
:1008E0000103FF0001FF090B080A0C1C00000202B3
:1008F0000203FF0002FF090B0C0C101C0000000299
:1009000002030408010110110A0A0C14300002034A
:100910000204FF0002FF11120A0C08143000020347
:100920000205FF0002FF11130C0C0C1C3100030325
:100930000305FF0003FF090B0C0C101C0000000353
:100940000305060E010113120C0E0C1430000304F3
:100950000306FF0003FF221E0E0E081431000304DD
:100960000506FF0003FF221E0E0E0C1C31000304BF
:100970000507FF0004FF090B0E0E10240000000401
:1009800006070814010224250E0E082400000000AA
:100990000101FF000003090808080908262525258C
:1009A00025240A080808092A0908262526090B2AE9
:1009B0002A2A2A0B08080909090808090A08090A45
:1009C0002A0B2A2A240809080809080808090B081C
:1009D0000A09322A2A0A08262509080808080808E8
:1009E000080A2A2A0A0A0A08090A08080808080838
:1009F00026252525252509090809090808080808C4
:100A000008092A09090908080808092809270927DF
:100A10000908090908090908080808090A090A094A
:100A20000A0808080808080808080809090909093F
:100A300009090826090824252525252A0808080863
:100A400008090B0A2408080924242A2A2A08090963
:100A50000809290B260A08090909242A2A2A08084C
:100A600008090A240909080808240A0A0A0B0808C0
:100A700008080926080808080826252525250B0842
:100A800008082A09080808080808080809240908A5
:100A90000808090909081C1E1C1C1C1C1C1C1C1E07
:100AA0001C1C1C1C221C1C1E1C1312111010111CBF
:100AB0001C1C2222221C1C1C13121F211F1D101182
:100AC0001C1E1E1E221C1C131211111112111110BA
:100AD000111C1C1E221C22121E1F11211D1C211E56
:100AE000101C1C1C1C1C1E111E121111121F121E88
:100AF000111E1E1C1E1C1C101E111C121112111E78
:100B0000111E1C1C1E1E1C10211F1D2121111F1D2A
:100B1000111E1E1C1C1C1C1110111112111111117F
:100B2000111C1E1C1C1C1C1C11101D1F211D101132
:100B30001E1E1E1C1C1C1E221E1110111111111E26
:100B40001E1E1E1C1C1C1C1C1E1E1E1C1C1E1E1ED3
:100B50001E1C1C1C1C1C1C1C1C1C1C1E1C1C1C22CB
:100B60001C1C1C1C1C1C1C1C221C1C1C1C1C1C1CBF
:100B7000221C1E1E1E1C1C1C221C1C1C22221C1C97
:100B80001C1C1E1C1C1C1C1C1C1C1C1C1C1C1C1CA3
:100B90001C1C1C1C1C1C282828282828282828281D
:100BA0002828282828282828282813121111102836
:100BB000131228282828282828131211111010276A
:100BC000121111282828282812121110101010278D
:100BD00011102B1228282812111110102810111191
:100BE0001110111213282828112810102710282856
:100BF0002728081112282811111011102811281265
:100C00001011101011282810101027282810281152
:100C100028282810102828102B1010111111271126
:100C20002812111110282811101010282728271019
:100C30002811101011282811111110101011111164
:100C400027111010112828282828272710101010E5
:100C50001010101011282828131211111110101043
:100C600010102B11272828282811111010102711D7
:100C700010111128282828282828111110102813AD
:100C80001111282828282828282828282828282812
:100C90002828282828280808080909080808080812
:100CA0000909080808080A0909090A0909080808B9
:100CB000080909090A0909080808090A09090908A7
:100CC000080808080909090908080808080909089E
:100CD00008080808080908092626260826260909FA
:100CE00026260808080808092626080826092609CD
:100CF000262426080808080826090909260A2609BC
:100D0000262426090909090826262609260A26096D
:100D100026260909320909090909090909080909E1
:100D200009090809090A080909080908080808083A
:100D30000808080808080808090A0909090808082D
:100D40000808080808080808080A0A09090908081C
:100D50000A090909080809080808080808090A0A08
:100D600009080808090909090808080808080808FE
:100D7000090908080809080A0909080808080808EC
:100D800008090908080808080809090808080808DF
:100D9000080809090909D6D90F700030E1F30215D6
:100DA000D0F7A02FA0FF09C0CDD90E700030E1F31D
:100DB0000315D0F70295A02B0895C4D90F700160D8
:100DC0000315D8F7F7CFBED90F700030E1F3021545
:100DD000D0F7A02FB7D90F700030E1F30315D0F78B
:100DE0000295A02B0895A0E0B1E0C3E4D7E080D144
:100DF000AF930EEF0C93346031601FEF6CD031FD78
:100E0000FBCF10EF68D031FDF7CF11E064D031FD9A
:100E1000F3CF10E160D031FDEFCF30FFEDCF32FDE9
:100E200007C010E0811621F08A940EE207D102C0BB
:100E30000DEF0C931FEF43D031FDDDCF10EF3FD00E
:100E400031FDD9CF11E03BD031FDD5CF10E137D006
:100E500031FDD1CF10E0E11649F09DDF0C9105196D
:100E60000830C0F70DEF0C93EA94F4CFBAD0A5D0B8
:100E7000AF9110E0611611F0062DE0D00FEF08835E
:100E8000C1D01FEFF11611F01F2D08D0C3E3D6E03B
:100E900071D047D10FEF0883BDD00895AF93BF93B2
:100EA000E6E9F9E000E0E00FF11FA0E0B1E010E0BA
:100EB00005910D931A95E1F7BF91AF9108953D7F8C
:100EC0004BD10E3F09F008953260A10F0DEF0C9346
:100ED000A10F0C9308953D7F46D10F3F09F008956F
:100EE0003E7F30D90F3708F0089532603B7FA10F65
:100EF0000EEF0C93A10F0C9308953F7D18811F3FB7
:100F000009F408950981007F02951A81107F012B51
:100F10000A1302C0306208956096F0CFE2E3F1E672
:100F200010E0000F111F000F111F000F111FE00F25
:100F3000F11F049108830E9474330A2F0F700295E9
:100F400009830A2F007F0A8305910B8304910C8388
:100F500005910D8300E00E830F83088705910987B3
:100F600005910A8705910B8705910C8700E00D8795
:100F700060960895092D003009F408950A950F939D
:100F8000B7D00C9104190430D8F7DCD81B2D1A19EE
:100F9000103089F0113049F00A1508F40A0D011BD0
:100FA000B016E8F3BBDF0F91E6CF00FD02C00A2DBB
:100FB00001C00B2DF7CF0B2DF5CFE0E0F1E0008164
:100FC0000D3F61F4142DBED8043108F41F5F0832C0
:100FD00008F41F5F003F08F01D5F1083EA9579F762
:100FE0000895E0E0F1E010811519183038F4008917
:100FF0000519083018F0150D11601083E395E03FD6
:1010000090F3089575D00C9104190430D8F70CE2D0
:101010000C9308956DD00C9104190430D8F7C3E3F4
:10102000D6E06BDF35FDF6CF0A2F0F7002950093E7
:1010300025060A2F007F00932606089509930A2F9C
:101040000F70029509930A2F007F099303E30C9315
:10105000089500931006E6E7F8E010E0000F111F76
:10106000000F111F000F111F000F111FE00FF11FC4
:10107000A0E0B0E010E105910D931A95E1F70E9410
:10108000C1300E94D9330E94F7330091100600301E
:1010900019F017D0A8DE089510E000DF00E50093F6
:1010A00033070093340708E60093350721D00A2F51
:1010B0000F700295009325060A2F007F00932606E5
:1010C0000895A0E0B1E010E000E00F93201610F1C9
:1010D000311600F100FF19C010FF17C00FEF0D937C
:1010E0000F910395003188F31395103168F308953B
:1010F00029D80F700215E0F7A02F24D80F70031520
:10110000E0F70295A02BA16108951CD80670050D8B
:101110000D93E6CF17D8083110F00D9201C01D9243
:10112000DFCF1FEFC11609F40895E2DF0C91041917
:101130000430D8F70C2DF2DE6097DA8601E00D87D7
:10114000609608951F3F21F4A1500DF4A05F08950B
:10115000A10F0DF4A0510895AF93BF93F3DF0C914D
:10116000BF91AF910895AF93BF93ECDFEBDF0C918C
:10117000BF91AF91089500E000937B0000E60093DB
:101180007C000FEE00937A0008950F931F930FB722
:101190000F93EF93FF9300917C00102F015008F400
:1011A00007E0139513FD10E610937C00E1E1F6E0F3
:1011B0000770E00F10E0F11F009179000083FF91AC
:1011C000EF910F910FBF1F910F9118958F9A8D9AE4
:1011D0008E9A8C9A769A2C9A00E000931F060093C0
:1011E0002006009321060895009119067F990BC0EF
:1011F0000230A1F0039500931906023079F40FEF45
:10120000009320060BC0003049F0023019F400E0D2
:101210000093200600E00093190600C000911A0612
:101220007D990BC00230A1F0039500931A0602309D
:1012300079F40FEF00931F060BC0003049F0023025
:1012400019F400E000931F0600E000931A0600C0A6
:1012500000911B067E990BC00230A1F0039500930C
:101260001B06023079F401E000931F060BC000302A
:1012700049F0023019F400E000931F0600E00093EB
:101280001B0600C000911C067C990BC00230A1F027
:10129000039500931C06023079F401E000932006C8
:1012A0000BC0003049F0023019F400E00093200632
:1012B00000E000931C0600C000911D0666990BC05B
:1012C0000230A1F0039500931D06023079F401E08D
:1012D000009321060BC0003049F0023019F400E001
:1012E0000093210600E000931D0600C000911E0639
:1012F0001C990BC00230A1F0039500931E0602302A
:1013000079F401E0009321060BC0003049F002306F
:1013100019F400E00093210600E000931E0600C0CF
:101320000895777000008888800077700008899998
:10133000880077700008988898007770000898985F
:10134000980077700008989998007770000888884E
:10135000880077700000088998007770000008986E
:1013600098007770000008898800777000008888EE
:101370008000777000008999880077700000889855
:101380009800777000008888880077700008899935
:10139000880077700008988898007770000898880F
:1013A000980077700008898988007770000888881D
:1013B00088007770000899999800777000088898DD
:1013C0008800777000000889980077700008888886
:1013D00088007770000898999800777000088888CE
:1013E00088807770000008999980777000000898CD
:1013F0009880777000001889880077700000118845
:101400008800777000001108980077700000188835
:10141000880077700000089998007770000008989D
:1014200088007770000008899800777000000088B5
:10143000880077700000088998007770000008988D
:10144000980077700000088988007770000088880D
:101450008000777000008999880077700000889874
:1014600098007770000008888800777000000000FE
:10147000000077700000000000007770000000009E
:1014800000007770000000000000777777777777AB
:1014900077777777777777777777777777777777DC
:1014A00077777777777777777777777777777777CC
:1014B00077777777777777777777777777777777BC
:1014C00077777777777777777777777777777777AC
:1014D000777777777777777777777777777777779C
:1014E000777777777777777777777777777777778C
:1014F000777777777777777777777777777777777C
:10150000777777777777777777777777777777776B
:10151000777777777777777777777777777777775B
:10152000777777777777777777777777777777774B
:10153000777777777777777777777777777777773B
:10154000777777777777777777777777777777772B
:10155000777777777777777777777777777777771B
:10156000777777777777777777777777777777770B
:1015700077777777777777777777777777777777FB
:10158000777777788888888888777778899998991D
:1015900098777778999999998877777899888889C9
:1015A00098777778998899899877777889989989B9
:1015B00098777778999899999877777888888888AC
:1015C0008877777898999999987777789999899978
:1015D00098777778998888899877777889887889CB
:1015E000987777789998089998777778999808995B
:1015F000887788888888888888008A8AAAA8AAAA7A
:10160000A8008AAAAAAAAAAAA8008AA888AA88883A
:1016100088008AA828AA888888008AA828AAAAA850
:10162000A8008AA888AAAAAA88008AAAAAAA888A38
:10163000880088AAAA8A828AA80008888888888858
:1016400088000008AAAAAAAAA80000088AAAAAAA2A
:10165000A80000088A88888A88000008AA88888AE2
:10166000A80000088AAAAAAAA8000008AAAAAAAAEA
:10167000A80000088888888888880008AAA8AAAADC
:10168000A8A80008AAAAAAAAA8A80008AA88888ABE
:10169000A8A80008AA88888AA8A80008AAAAAAAAAE
:1016A000AAA80008AAAAA88AAAA8000888888888E0
:1016B00088880008AAAAAAAAA8000008AAA8AAAA14
:1016C000A80000088888888AA80000088888888A76
:1016D000A8000008AAAAAAAAA8000008AAAAAA8A7A
:1016E000A80000088888888888000008AAAA8AAA12
:1016F000A8000008AAAAAAAAA8000008AA88AA8A7C
:10170000A8000008AA88AA8A880000088AAAAA8ACB
:10171000A8000008AAAAAA8AA800000888888888C1
:1017200088008888888888888888888888888888C1
:101730008888888888888888888888888888888829
:101740008888888888888888888888888888888819
:101750008888888888888888888888888888888809
:1017600088888888888888888888888888888888F9
:1017700088888888888888888888888888888888E9
:1017800088888888888888888888888888888888D9
:1017900088888888888888888888888888888888C9
:1017A00088888888888888888888888888888888B9
:1017B00088888888888E88888888888888888888A3
:1017C0008888888888888888888888888888888899
:1017D0008888888888888888888888888888888889
:1017E0008888888888888888888888888888888879
:1017F0008888888E88888888888888888888888863
:101800008888888888888888888888888888888858
:10181000E8888888888888888888888888888888E8
:101820008888888888888888888888888888888838
:1018300088888888888E88888888888888E88888C2
:1018400088888888888E8888888888888888888812
:1018500088888888888888888E88888C88888888FE
:101860008888888C888888888888888888888888F4
:1018700088888888888888888888888888888888E8
:1018800088888888888888888888888888888888D8
:10189000E88888E888888888888888888888888808
:1018A0008888888888C88888888888888888888878
:1018B00088888888888888888888888888888888A8
:1018C0008888888C8888888888888888888888E834
:1018D00088888888888888E8888888888888888828
:1018E000888888888E8E888888888888EE8EE888A0
:1018F00088888888EEEE888888888888EE8EE888D0
:10190000E8888888CE8C8888888888888CCC888865
:101910008888888888888888888888888888888847
:101920008888888888888888888888888888888837
:101930008888888888888888888888888888888827
:101940008888888888888888888888888888888817
:101950008888888888888888888888888888888807
:1019600088888888888888888888888888888888F7
:1019700088888888888888888888888888888888E7
:1019800088888888888888888888888888888888D7
:1019900088888888888888888888888888888888C7
:1019A00088888888888888888888888888888888B7
:1019B00088888888888888F888888888888888E8D7
:1019C0008888888888888888888888888888888897
:1019D0008888888888888888888888888888888887
:1019E0008888888888F88888888888888F88888800
:1019F000888888888EF888888888888888E8888891
:101A00008888888888888888888888888888888856
:101A1000F8888888888888888888888888888888D6
:101A20008888888888888888888888888888888836
:101A300088888888888888888A8888888888888824
:101A40008888888A88888888888888888888888814
:101A50008888888888888888888888888888888806
:101A6000888888888888888A8888888888888888F4
:101A700088888888888888888888888888888888E6
:101A800088888888888888888888888888BB8888A3
:101A900088888888888888888888888888888888C6
:101AA00088888888888888888888888888888888B6
:101AB000888888A88888888A888888888888888884
:101AC00088888888888888BA888888888888888864
:101AD000888888888888888A888888888888888884
:101AE0008888888888888888888888888B88888873
:101AF000888888888888888888888888AA8888A824
:101B00008888888888888888888888888A88888853
:101B10008888888888888888888888888888888845
:101B20008888888888888888888888888888888835
:101B300088888888888888888888888C8888888821
:101B40008888888888888888888888888888888815
:101B50008888888888888888888888888888888805
:101B600088888888888888888888888888888888F5
:101B700088888888888888888888888888888888E5
:101B8000888888888888C888888888888888888895
:101B900088888888888888888888888888888888C5
:101BA00088888C8888888C888888888888888888AD
:101BB000888888888888888C888E8888C88888885B
:101BC0008888888888888888888888888888888895
:101BD00088C888888888888888888888888888C805
:101BE0008888888888888888888888C88C88888831
:101BF0008888888888888888888888888888888865
:101C000088C8888888888888888888888888888814
:101C1000C888888888888888888888888888888804
:101C200088888888888888888888E8888888E88874
:101C30008888888C8888888C888E8888C8888C88D2
:101C400088888888888888888E888888888888880E
:101C500088C88888888C8888888E88E8888888C81A
:101C600088888C8888888888888888C888888888B0
:101C70008888888888C8888888888888C888888864
:101C8000C8C888888888888888888C888888888850
:101C900088C8888888888888888888C88888C8C8C4
:101CA00088888C8888888C88888888C8888888E80C
:101CB0008888888888888888888E8888C8C888881E
:101CC000C88888888E8888888E888888C8E88888A8
:101CD000C8C8888C888E888C888EE8E88888C8C8B0
:101CE00088888C8888888C88888888C8888888C8EC
:101CF00088888888888E888E88888888C8E88888B8
:101D0000C8E888888E8888888E888888C8C8888827
:101D1000C8C8888C888E8888888EE888888888C813
:101D200088888FFFFF8FFFFFFE88FFFFFFFFFFFF09
:101D3000FBE8FFFFFFFFFFFFFBE8FFFFFFFEFFFFEA
:101D4000FED88FFFFFF8FFFFFBE8FFFFFF88FFFFD4
:101D5000FBD8FFFFFFF8FFFFFEE8FFFFFFFEFFFFDE
:101D6000FBE8FFFFFFFEFFFFFE88FFFFFFFFFFEF27
:101D7000FE88FFFFFFFFFFFFEBE8FFFFFFFFFFFF16
:101D8000FBD8FFFFFFFFFEFF8E88FFFFEFEFFFFF97
:101D9000E8E88E8EDEEDDE8E8E88888888888888DA
:101DA00088888FFFFF8F8F8A8A88FFFFFFFFE8E810
:101DB000A8A8FFFFFFFF8E8F8C88FFFFFFFE88A87B
:101DC000A8C88FFFFFF88F8B8A88FFFFFF8888E8FD
:101DD000A8C8FFFFFFF8888E8A88FFFFFFFE88A84B
:101DE000A8A8FFFFFFFE8E8E8C88FFFFFFFFE8E8AC
:101DF000F8A8FFFFFFFF8A8A8C88FFFFFFFFE8E853
:101E000088C8FFFFFFFF8B8A8A88FFFFEFEFE8E8B3
:101E1000A8C88E8EDEED8A888A8888888888888817
:101E200088888FFFFFF8FFFFFE88FFFFFF8FFFFF0F
:101E3000FBE8FFFFFFFFFF8FFBD8FFFFFFFFFF8FD8
:101E4000FE88FFFFFFEFF88FEBE8FFFFFFFFFF8F3C
:101E5000FBE8FFFFFFFFFFFFFBE8FFFFFFFEFFEFD9
:101E6000FBD88FFFFFFEFFFFFEE88FFFFFF8FEFFAE
:101E7000FE88FFFFFF88FFFFFBE8FFFFFFFEFFFF7D
:101E8000EBD8FFEFFFFFFF8FFED8FFFF8F8FEFFF35
:101E9000E8E88EEDE8EDEEDDEE88888888888888B1
:101EA00088888FFFFFF88E8A8A88FFFFFF8FE8A857
:101EB000A8C8FFFFFFFF8F8B8A88FFFFFFFF88E81E
:101EC000A8C8FFFFFFEF8A8A8C88FFFFFFFFE8E8C2
:101ED000A8A8FFFFFFFF8E8A8888FFFFFFFEE8A803
:101EE000A8888FFFFFFE8B8A8C888FFFFFF888F809
:101EF000C8C8FFFFFF888E8A8A88FFFFFFFE88A878
:101F0000A8A8FFEFFFFF8F8A8A88FFFF8F8FE8A8BE
:101F1000A8C88EEDE8ED8A8A8A88888888888888AB
:101F200088888FFFF88FFF8FFE88FFFFF8FFFFFF85
:101F3000FBE8FFFF8FFFFEFFEBD8FFFF8FFFFFFFE8
:101F4000FBE88FF8F8FEFFFFFE88FFFFFFFEFFEFC4
:101F5000FE88FFFFFFF8FFFFFBE8FFFFFF88FFFFA2
:101F6000EBE8FFFFFFF8FFFFFBD8FFFFFFFEFFFFDF
:101F7000FE888FFFFFFFFFFEFEE8FFFFFFF8FFFF79
:101F8000EE88FFFFEFF8FFFEFEE8FFFFFFFEEFEF3A
:101F9000EED88EDE8EEDDEE8DD8888888888888839
:101FA00088888FFFF88F8E8B8A88FFFFF8FF88A8BC
:101FB000A8C8FFFF8FFF8E888A88FFFF8FFFE8F891
:101FC000A8A88FF8F8FE8E8A8C88FFFFFFFEE8E84D
:101FD000A8A8FFFFFFF88A8A8A88FFFFFF8888B8D1
:101FE000A8A8FFFFFFF88F8A8C88FFFFFFFE88E814
:101FF000A8C88FFFFFFF888A8A88FFFFFFF888E85C
:10200000A888FFFFEFF88A8A8A88FFFFFFFE88A86A
:10201000A8C88EDE8EED8E8A8A888888888888880F
:1020200088888FFFF88FFF8FFE88FFFFF8FFFFF88B
:10203000FBE8FFFF8FFFFEF8EBD8FFFF8FFFFFFFEE
:10204000FBE88FF8F8FEFFFEFE88FFFFF8FEFFEFCB
:10205000FE88FFFFFF88FFFFFBE8FFF8FF88FFEE29
:10206000EBE8FFFFFFF8FFFFFBD8FFFFFFFEFFFFDE
:10207000EE888FFFFFFFFE8EEEE8FF8F8FF8FF8F59
:10208000EE88FFFFE8F8F8FEFEE8FFFFFF8EEFEFB7
:10209000EED88EDE8EE88EE8DD888888888888888D
:1020A00088888FFFF88F8E8B8A88FF88F8FF88A832
:1020B000A8C8FFFF8FFF8E888A88FFFF8FFFE8F890
:1020C000A8A88FF8F8FE8E8A8C88FFFFFF88E8E8C2
:1020D000A8A8FFFFFFF88A8A8A88FFFFFF8888B8D0
:1020E000A8A8FF8FFFF88F8A8C88FFFFFFFE88E883
:1020F00088C88F8F8FF8888A8A88FFFF8F8888E842
:10210000A888FF8FE8F88A8A8A88FF88FF8E88A8C7
:10211000A8C888DE8E8D8E888A8888888888888876
:102120008888AAA8AAA8AAA88888AAA8AEA8AAA89F
:10213000BBA8AAA8AEB8AAE8BEA8AAA8AEA8ABA891
:10214000BEA88888BAA88888AEA8AEE8BA88BEA813
:10215000AAA8AEA8AAA8AAA8AEA8BEE8AAA8AEA88F
:10216000AA88BEE88888ABE88888AAB8AEA8AEA8D6
:10217000BAA8AEA8EEA8EAA88AA8AA88AEE8AAA833
:102180008EA88888AEA88888AEA8AEA8AAA8BAA843
:10219000AAA8EAA8EAA8AAE88AA8AEA88888BAA83D
:1021A000AAA8AAA8AAA888888C88AAA8AEA8A8C8FD
:1021B000C8C8AAA8AEB88C888C88AAA8AEA8C8C877
:1021C000C8888888BAA88B888888AEE8BA88C8B8D2
:1021D000A8A8AEA8AAA88C888C88BEE8AAA8C88897
:1021E000A8C8BEE8888888888C88AAB8AEA8A8A89D
:1021F000C8C8AEA8EEA88A888C88AA88AEE8A8C805
:1022000088888888AEA88C888888AEA8AAA8C8C8FC
:10221000A8C8EAA8EAA88B888B88AEA88888C8884E
:10222000B8C8AEE8AAA8EAA88888EEA8AEA8EEA822
:10223000EAB8AEA8AEA8EEB8AEA8AAA8EE88AAA83A
:102240008EE88888EE888888EEA8AA88EAB8BBE875
:10225000AEA8EAA8AEA8BAA8AAA8A8A8AA88AAA8B8
:10226000AB88AEA88888A8A88888AE88EEA8AA8877
:10227000BAA8A888AEA8A8A8BEA8AA888EA8AA8826
:10228000EBA88888A8A88888AEA8BAE88AA8EAA88F
:10229000BA88EAA8A8A8AAA8AAA8AAA88888AAA8C2
:1022A000AA88AEE8AAA888888C88EEA8AEA8A8C894
:1022B000C8C8AEA8AEA88C888C88AAA8EE888888E2
:1022C00088888888EE888C888888AA88EAB8C8C8F0
:1022D000A8C8EAA8AEA88C888C88A8A8AA888888EC
:1022E000B8C8AEA8888888888C88AE88EEA8888808
:1022F000B888A888AEA88B888C88AA888EA8B8C809
:10230000C8888888A8A88A888888BAE88AA8C8C897
:10231000A8C8EAA8A8A88C888C88AAA888888888D1
:10232000C8C8AAA8EE88AAA88888AEB8BEA8AEA8D1
:10233000BAA8AAB8EEE8AEB8AEA8AB88EEE8AAA8EC
:102340008EE88888AEB88888AEE8AEA8AE88EAA8DD
:10235000AEA88AA8A8A8EEA8AA88AEB8AA88EA88D3
:10236000AAA8EEA88888AEA88888EAA8AEA8AAA8D5
:10237000EEA8EB88EEA8AEA8AEA8AAA8AE88AAA838
:10238000EA888888AE888888AA88AEA8AAA8BAA849
:10239000A8A8AEA88AA8AA88AA88AEE88888EAA8C9
:1023A000AAB8AAA88AA888888C88AEB8BEA8C8A8E7
:1023B000B8C8AAB8EEE88C888C88AB88EEE8A8A8E4
:1023C000C8888888AEB88C888888AEA8AE88C8C807
:1023D00088A88AA8A8A88C888C88AEB8AA8888887B
:1023E000C8C8EEA8888888888C88EAA8AEA8A8C83B
:1023F000C888EB88EEA88A888C88AAA8AE8888C886
:10240000C8888888AE888B888888AEA8AAA8C8C8DB
:10241000A8C8AEA88AA88C888C88AEE888888888E6
:10242000A8C88EE88EE88AA888888EA8AEA8EEA8EC
:10243000EAB88EA88EA888B88EA8AAA8EE88AA881E
:1024400088888888EE888888EEA8AA88EAB88BE809
:10245000AEA8EAA8AEA8BAA8AAA8A8A8AA88AA88D6
:10246000AB88AEA88888A8A88888AE88EE88AA8895
:102470008888A888AE88A8A8BEA88A888E88AA88D6
:10248000EBA88888A8A88888AEA8BAE88AA8EEA889
:10249000BA88EAA8A8A8AEA8AAA8AAA88888AA88DC
:1024A0008AA888888AA8888888888EA88EA8A8C8BC
:1024B000C8C88EA88EA88C888C88AAA8EE88888820
:1024C000888888888E888C888888AA88E8B8C8C850
:1024D00088C8EAA8AE888C888C88A8A8AA8888882A
:1024E000B8C88EA8888888888C888E88E88888886C
:1024F000B888A888AEA88B888C88AA888EA888C837
:10250000C8888888A8A88A8888888A888AA8C8C825
:10251000A8C8EA88A8A88C888C88AA88888888880F
:1025200088C800000000000000000000000000005B
:102530000000000088800000000000008C888000FF
:1025400000000000888C8800000000000088C8801F
:1025500008880000088C8C8888C8008888C8C8CC87
:10256000CC88008CC888CCCCCC880088888CC8CC1F
:1025700088C80000088C88C88888000888C88C88AB
:1025800000000008CC8888800000000888800000D7
:10259000000000000000000000000000000000003B
:1025A0000000888888BC888F88C8898BBFCFFFFCD3
:1025B000CCC8888888F8888CC8C8777778F8778FEF
:1025C0008888788888F8888C8C877898BFBCFFFCCE
:1025D000CC87788888BB88888887777778F8878FD2
:1025E0008887788888F8888F8C877898BBCFFFCCCD
:1025F000CC877888888888CF8C87777778F8788CAC
:102600008888778888C8888C88C8778BFCCFFFCF6C
:10261000CCC8778888F888FC88C8000008F8088C3F
:10262000888800000000088888800088888888B82A
:10263000BB80088B8BB88A8AA88808A8AA888BBA1E
:102640008AC888BBA8A8BB8A8AA88BB8A8A88AA869
:10265000ACC888AA8A88B8AA88A88B8AA8888A88D9
:10266000ACA888A888B8A8A88AC88A8A8B888A8AC9
:102670008C8888A88AA8888AC8800888B8AA888888
:10268000880000088A88ACC800000008A8A88A88CA
:10269000000000088A8A8C8000007000888888808A
:1026A0000000700000000000888870000000000832
:1026B0008FD8770008888888FF88770088F8DFFD42
:1026C0008FF877008FFF88888F8877008FFF8D8F36
:1026D000D8B8770088DD8888888877008D8F8CDD72
:1026E000B8D87700888FF8888888770008F8FCCDFC
:1026F000D8D8770008DD888888887700088DCFCC07
:1027000088D877000088D8F8888877000008CCDC63
:10271000C8D8000000088888CCC800000000000865
:1027200088880088888000008888088F8D88000845
:102730008FD808FFF8D88888FF8888FFF8F8DFFD71
:102740008FF88B8FFF8F88888F888FFFFF8F8D8FFB
:10275000D8B88FFFFF8D888888888FFFDF888CDD51
:10276000B8D88FFFF88D888888888FDFDB888CCD7C
:10277000D8D88FFDBD8D888888888DDBDDD8C8CC02
:1027800088D888BBD8888888888808BDB8D8CC8C79
:10279000C8D8088B8C8888888CC8008888800000FE
:1027A0008888000000000000000000000000000019
:1027B00088800088888880088C88088FFFFF888838
:1027C000C8E808FFFFFFFF8888C888FFBFFF9FEFAA
:1027D00088888E8F8FF9F9F8C8E88EE8F99FFF9EF8
:1027E00088C888EE89999988C8C808EE888888CCF6
:1027F00088E808E8CCC8CC888888088CCCCC888845
:102800008CC8008888888008C8E80000000000089C
:102810008E8800000000000088800000000000009A
:1028200000000000000000000000000000000000A8
:1028300088800000000000008C8000008888000074
:10284000888800008EC800088C8800008F88008867
:10285000C8C800888FE88888C8C8088FFEEEFFECDB
:10286000CCC808CEC8EC8EC8CCC8088888E8888850
:10287000CCC808888EC88888CCC800008EC80008DC
:102880008CC8000088880000888800000888000044
:102890008C80000000000000888000000000000024
:1028A0000000000000000000000000000000000028
:1028B0000000000088800000000000088F880000F1
:1028C00000000088F8F880000888088FFF8F8800D3
:1028D00088C888FF888FF8008C888F88EEE8888009
:1028E00088C888EEEEE8EE808C8808EEEE8EE880F0
:1028F00088C8088EEE8E88008C880088E8E8800002
:10290000888000088E880000000000008880000099
:1029100000000000000000000000000000000000B7
:10292000000000000088888888000000088F8F8FD2
:10293000F8800008888888888F800088FF88EEC823
:102940008F80008FFFF8E8CC8880008F88F8EE8CAD
:102950008F80008FF8F8E8E88880008FFFF8EE8C11
:102960008F80008EF8F8E8E88F80008EFFF8EE8CFC
:102970008F80008EF8F8E8E88F80008EEFF8EE8CFC
:102980008F800088EE88EEC88F800008888888884D
:102990008F800000088FFF8FF880000000888888F3
:1029A000880000000088888888000000008E8F8FD3
:1029B000F8807770088888888F80777008E88EE8BC
:1029C0008F80777008E8EEEE8880777008E8E88EF0
:1029D0008F80777008E8EE8E8880777008E8EEEEDA
:1029E0008F8077700888EE8E8F80777008E8CEEE43
:1029F0008F80777008E8CE8E8F8077700888CCEE55
:102A00008F80777008E88CC88F80777008E8888896
:102A10008F800000088EEF8FF88000000088888883
:102A200088000088888888888880088BFBBBB8BBB2
:102A3000BB8808F88888B888B8B808899898B89981
:102A40008BB808999998B89998B808999898B889BE
:102A500098B808999998BBB898B808999998B8B84F
:102A600098B808999998B8B898B808999998BBB83F
:102A700098B808998998B88998B808998998B899A0
:102A800098B808898998B8998BB808F88888B88860
:102A9000B8B8088BFBBBB8BBBB880088888888881F
:102AA0008880088888888888888088FBB8C8C8BBE0
:102AB000BB888988B88C8888B8B88998B88888997C
:102AC0008BB88998B88C889998B88998B88888996B
:102AD00098B88998BBB8889998B88998B8B88889FF
:102AE00098B88998B8B8888998B88998BBB88899EF
:102AF00098B88998B888889998B88998B88C88992E
:102B000098B88998B88888998BB88988B88C88884B
:102B1000B8B888FBB8C8C8BBBB88088888888888CC
:102B20008880000000088880000088888888EE88F7
:102B300088008BB88EEEEEE8B8008B8EEEE8888EBB
:102B4000B8888BEEE8FF88EEB8E888EEE88FF88862
:102B5000B8E88EEE8FFFF8BB88888EE8FFFFF88814
:102B600088E88EE8FFFFF88888E88EEE8FFFF8BBD4
:102B7000888888EEE88FF888B8E88BEEE8FF88EE62
:102B8000B8E88B8EEEE8888EB8888BB88EEEEEE8CB
:102B9000B80088888888EE8888000000000888804F
:102BA000000088888000000000008FFF8888880867
:102BB000880088FF88999888C80008F88988898CD7
:102BC000C8888899CCCC889C88988CCCC88CC888BC
:102BD00098988CCCC88C889888888CC88CCCC889EC
:102BE00098988CC88CCCC88998988CCCC88C8898BC
:102BF00088888CCCC88CC88898988899CCCC889CBC
:102C0000889808F88988898CC88888FF8899988866
:102C1000C8008FFF888888088800888880000000A6
:102C20000000000088888888888000088EE8F8FF07
:102C3000FF887778E888888888F87778C8888CCC87
:102C4000C8F87778C8E8888888F877788888EEEEBA
:102C5000E8887778C8E8EEEEE8F877788888EE8E2E
:102C6000E8F87778C888888888F8777888FFFFFF41
:102C7000F8F87778C8FFFFFFF8887778C8FFFFFF7C
:102C8000F8F8777888FFFF8FF8887778C888888881
:102C900088F877788C8EEE8FFF88777088888888A0
:102CA0008880777777777087878377777777787873
:102CB000C84877777777708C8C84777777777708C1
:102CC000C84877777777708C8C847777777778C8F0
:102CD000C84877777777708C8C847777777778C8E0
:102CE000C84477777777708C8C847777777778C8D4
:102CF000C84877777777708C8C8477777777770881
:102D0000C84877777777708C8C847777777778C8AF
:102D1000C84877777777708C87847777777770086C
:102D200048440000000000000000000888888888EF
:102D300080000088FF8FF8FF8800088FFFF88FFF62
:102D4000F88008FFFF8FF8FFFF8008FFFFFFFFFFFD
:102D5000FF80088F8FFFFFF8F88008F8FFFFFFFF64
:102D60008F8008F8FFFFFFFF8F80088F8FFFFFF82D
:102D7000F88008FFFFFFFFFFFF8008FFFF8FF8FFCD
:102D8000FF80088FFFF88FFFF8800088FF8FF8FF23
:102D90008800000888888888800000000000000003
:102DA000000000000088880000000088888FF888F4
:102DB0008800088FF8FFFF8FF88008FF8F8FF8F8E2
:102DC000FF8008F8888888888F80088F8F8008F8AF
:102DD000F88088F8888008888F888FFF8000000836
:102DE000FFF88FFF80000008FFF888F888800888C7
:102DF0008F88088F8F8008F8F88008F8888888887E
:102E00008F8008FF8F8FF8F8FF80088FF8FFFF8F03
:102E1000F8800088888FF888880000000088880083
:102E20000000088880888808888088FF888FF88854
:102E3000FF888FF88F8888F88FF88F8888800888B7
:102E400088F8888800000000888808F800000000E2
:102E50008F8088880000000088888F800000000034
:102E600008F88F800000000008F888880000000043
:102E7000888808F8000000008F8088880000000023
:102E800088888F888880088888F88FF88F8888F8E5
:102E90008FF888FF888FF888FF88088880888808DE
:102EA000888000088800008880000008F800008FF3
:102EB00080000008880000888000888000000000F2
:102EC00008888F800000000008F88880000000005B
:102ED0000888000000000000000000000000000062
:102EE00000000000000000000000000000000000E2
:102EF000000088800000000008888F80000000002B
:102F000008F8888000000000088800088800008811
:102F100080000008F800008F80000008880000880A
:102F2000800000000088888000000000888AAA884D
:102F3000800000888A88888A8000088A8888B88803
:102F4000888008A8888888008A8088888B88B888C4
:102F500088888A80888BBBB888A88A8888BBBBBBD6
:102F6000B8A88A88BBBBBBB888A88AA8888BBB884E
:102F700008888AA8808BB880000088AA888B88007F
:102F8000888008AAA88B80088A80088AAAA88888CE
:102F9000A88000888AAAAAA8880000008888888853
:102FA0000000000000000000000000000088800019
:102FB00000000888008A8000000008A80088808837
:102FC000800008880000088B80000000888088B896
:102FD000888008888B888BB88A8008A88BB8BB88C3
:102FE0008880088888BBB88000008880088BBB88F0
:102FF00000008A8088BBBBB800008A888B888888DC
:1030000088008AA888800008A80088AA888888087C
:103010008800088AAA88A80000000088888888009C
:103020000000000000000000000000888000000098
:103030000000008A800000000000008880000888EE
:1030400000000000000008B8000000000088888828
:1030500008888880088BB80008A88A8088BB880008
:10306000088888888BBB800000000888B8888000AA
:10307000000008A8880000000000088888800088F8
:10308000800000008A80008A80000000888000881C
:1030900080000000000000000000000000000000B0
:1030A000000077777777777777777777777777779E
:1030B0007777077777777777777700777777777787
:1030C00077770070000000007777777000000000CD
:1030D0007777777000088800777777700888B8006E
:1030E0007777777008BB88007777777008888000DB
:1030F0007777777000000000777777700000000026
:10310000777777777777777777777777777777774F
:10311000777777777777777777777777777777773F
:1031200077777777777777777777000000000000F9
:1031300000000000000000088880000000000088F7
:10314000BB8000000000088BBB800000000088BB33
:10315000B880000888088BBB88000008B888BBB816
:10316000800000088BBBB8B80000000088BBB8B86E
:10317000000000888BBB888800000088BBB88000F6
:103180000000008F8B8800000000008F8880000006
:103190000000008880000000000000000000000027
:1031A000000000000000000000000000000000001F
:1031B00000000000000000888800000000088889E6
:1031C000980000000008F899980000000008FF89A6
:1031D000880000000088F8F880000000088FFFFFDA
:1031E0008000000088FFF88F800000088FFF88882B
:1031F00080000088FFF880000000008FFF8800003A
:10320000000000888880000000000000000000002E
:1032100000000000000000000000000000000000AE
:10322000000000000000000088880000000088887E
:10323000899800000000898898980000000088980C
:1032400089880000000088898880000000088F8835
:10325000988000000088FFF889800000088FFF88B0
:103260008880000088FFF880000000088FFF880039
:1032700000000088FFF880000000088FFF88000031
:10328000000088FFF880000000008FFF8800000029
:1032900000008888800000000000777777777777D4
:1032A0007777000000088800888800000008B88848
:1032B0008BB800000008BB88BBB800000008BB8BBF
:1032C000BB88000000888BB8B8800000088FF8BB6E
:1032D0008880000008FF888BBB88000088FF88F882
:1032E000BBB800088FF8FFF888880088FF8FFF8838
:1032F0000000088FF8FF8880000088FFFFF880003A
:1033000000008FFFFF88000000008FFFF8800000A2
:1033100000008FFF88000000000088888000000007
:1033200000000000000088808888000000008B8872
:103330008BB8000000008B88BBB80000000888B87C
:10334000BB8800000088F8BB88800000088F888B4D
:10335000B888000088F8EE888BB800088F8EEE8F52
:1033600088880088F8EEE8F88000088F8EEE8F8855
:10337000000088F8EEE8F88000008F8EEE8F88005D
:1033800000008F8EE8F8800000008FF88F88000022
:10339000000088FFF8800000000008888800000016
:1033A0000000000000000000888800000000000805
:1033B00089980000000000889898000000000089AB
:1033C000898800000000088998800088888888F82B
:1033D0008800088EEEE88F88000088EEE888F88084
:1033E00000008EEEE88F888000008EEE8AA88E8026
:1033F00000008E88AAA88E8000008E8AAA8EEE8099
:1034000000008888A8EEEE80000088F888EEE8804A
:1034100000008F88EEEE8800000088888888800091
:1034200000000000000000008888000000088808F4
:10343000899800000008F888999800000008FF8922
:10344000998800000088FF8898800000088FF8FFA6
:103450008800000088FF8FFFF80000088FF8FF88C1
:1034600088000088FF8FFFF80000088FFFFF888822
:10347000000088FFFFFFF80000008FFFFF88880032
:1034800000008FFFFFF8000000008FFF8888000019
:10349000000088FFF8000000000008888800000095
:1034A0000000000000088800888800000008B88834
:1034B0008BB800000008BB88BBB8000000088BBBBD
:1034C000BB880000008888B8B8800000088FF8BB6F
:1034D000B880000088FF8888BB8800088FF888F8CB
:1034E0008BB80088FF888FF88888088FF888FF8855
:1034F000000088FFF88FF88000008FFFFFFF880032
:1035000000008FFFFFF8800000008FFFFF880000A1
:1035100000008FFFF880000000008888880000000D
:1035200000007777777777777777000000000000E3
:103530000000000000000000000000088888888863
:1035400088800088FFFFFFFFFF88888F8888888831
:1035500088F88FE888BBBBBBB8F88FE808B88B8BBE
:10356000B8F88FE808BBBBBBB8F88FE888BBBBBB1B
:10357000B8F8888F8888888888F80088FFFFFFFF60
:10358000FF88000888888888888000000000000084
:10359000000000000000000000000000000000002B
:1035A000000000000000000000000000000008888B
:1035B00088000000000088FFF880000000088F8865
:1035C0008F8888888888F8AA88F88FE8FFFF8AAAF9
:1035D000A8F88FE88888AA8AA8F88FE808AA8AAA93
:1035E000A8F88FE808AAAAAAA8F88FE88888AAA845
:1035F000A8F88FE8FFFF8AAAA8F888888888F8AA20
:1036000088F8000000088F888F880000000088FF7D
:10361000F88000000000088888000000000000001A
:103620000000000000000000000000000088888802
:1036300088000000088FFFFFF880000088F8888865
:103640008F8888888F88EEEE88F88FE8F88EEEEE07
:10365000E8F88FE888EEEE8EE8F88FE808EE8EEE58
:10366000E8F88FE808EEEEEEE8F88FE888EEEEE88E
:10367000E8F88FE8F88EEEEEE8F888888F88EEEEAE
:1036800088F8000088F888888F880000088FFFFF7E
:10369000F880000000888888880000000000000092
:1036A00000000000088888880000000088FFFFF8FC
:1036B000800000088F88888F88000008F889998822
:1036C000F8888888F89999988FF88FE88899999957
:1036D00088F88FE80899899998F88FE80899999956
:1036E00098F88FE80899999898F88FE80899989928
:1036F00098F88FE88899999988F88888F89999981E
:103700008FF80008F8899988F88800088F88888FD2
:103710008800000088FFFFF8800000000888888883
:1037200000007777777777777777000000000000E1
:103730000000000000000000000000000000000089
:103740000000000000000000000000000888800069
:103750000000000008FF88888800000008FFBBBB4D
:10376000B800000008FF888888000000088F8000EB
:103770000000000000888000000000000000000041
:103780000000000000000000000000000000000039
:103790000000000000000000000000000000000029
:1037A0000000000000000000000000000000000019
:1037B0000000000000000000000000000000000009
:1037C0000000000000000000000000088888800061
:1037D00000000008AA8A888888000008A8B8BBBB37
:1037E000B8000008A8B8BBBBB8000008AA8A88883F
:1037F000880000088A8A8000000000008888800015
:1038000000000000000000000000000000000000B8
:1038100000000000000000000000000000000000A8
:103820000000000000000000000000000000000098
:1038300000000000000000000000000888888000F0
:1038400000000008EEEE800000000008E8EE8000B6
:1038500000000088EEEE88888800008F8EE8FFFF69
:10386000F800008F8EE8FFFFF8000088EEEE8888F1
:1038700088000008EE8E800000000008EEEE800058
:1038800000000008888880000000000000000000A0
:103890000000000000000000000000000000000028
:1038A0000000000000000000000000088880000008
:1038B0000000088899888000000008999999800084
:1038C00000000889989880000000008998980008F6
:1038D0008800088998988888C80008C8989CCCCC2B
:1038E000C80008C8989CCCCCC800088998988888DB
:1038F000C800008998980008880008899898800076
:103900000000089999998000000008889988800033
:103910000000000888800000000000000000000097
:103920000000777777777777777777777777777715
:10393000777777778888800777777778899988008D
:1039400077777778999998800777777899899988A0
:1039500007777778899999988777770088999999DF
:1039600087777707889999998777770889999998B8
:10397000877777789999998817777778999998813F
:10398000077777788999881007777770888881001A
:1039900077777777777777777777777777777777B7
:1039A00077777777777777777777777777777777A7
:1039B00077777777777777777777777778888807E4
:1039C0007777777778BBB887777777777888BB878B
:1039D00077777077708BBB87777777777088BB81C5
:1039E000777777777788BB8177777777778BBB81A6
:1039F000777777777888BB877777777778BBB8875B
:103A00007777777778888807777777777777777793
:103A10007777777777777777777777777777777736
:103A20007777777777777777777777777777777726
:103A30007777777777777777777777777777777716
:103A400077777777777777777777777777888877E4
:103A500077777777788FF8877777777778F8FF8732
:103A60007777777778FFFF8777777777788FF8871B
:103A700077777777778888777777777777777777B4
:103A800077777777777777777777777777777777C6
:103A900077777777777777777777777777777777B6
:103AA00077777777777777777777777777777777A6
:103AB0007777777777777777777777777777777796
:103AC00077777777777777777777777777888807D4
:103AD00077777777788FF8877777777778F88F8722
:103AE0007777777778F88F8777777777788FF88712
:103AF00077777777708888077777777777777777AB
:103B00007777777777777777777777777777777745
:103B10007777777777777777777777777777777735
:103B20007777088888888888880008BB8FFFFF8F90
:103B3000F800088B88FFFF8FF8008899998888899A
:103B40008800899898FFF888888089999888FF8BE1
:103B50008980898898FFFF88B880899998FFFF89B4
:103B60008B80899998FFFF898B88898898FFFF88C7
:103B7000B89889999888FF888B98899898FFF8FF5A
:103B8000F8888899998889F88F80088B889998F89F
:103B90008F8008BBB88888FFF8800888880008886C
:103BA0008800088888888888800008B8FFFFF8FFA8
:103BB0008000088B8FFFF8FF80008899988888988C
:103BC0008000899898FFF888888889999888FF8B61
:103BD0008B98898898FFFF88B898899998FFF88909
:103BE0008B88899998FFF8898B80898898FFFF884E
:103BF000B88089999888FF888980899898FFF88F7C
:103C0000FF8888999988898F88F8088B8899988F78
:103C100088F808BBB888888FFF88088888000088E3
:103C20008880088880000888880008BB880888FF8A
:103C3000F880088BB88898888F808898B899898F81
:103C4000FF8089898999898FF880898999999898BD
:103C50008980898999999898B8808989999998983B
:103C60008B808989999998988B888989999998984E
:103C7000B8988989999998988B9889898999898917
:103C800088888898B89989888000088BB88898FFB8
:103C9000800008BB8FFFF8FF80000888888888882C
:103CA0008000088880008888800008BB88088FFF13
:103CB0008800088BB8889888F8008898B899898F08
:103CC000F800898989998989888889899999989832
:103CD0008B98898999999898B89889899999989889
:103CE0008B888989999998988B80898999999898CE
:103CF000B8808989999998988980898989998989C9
:103D000088808898B89989888800088BB888988FA7
:103D1000F80008BB8FFFFF8FF80008888888888824
:103D20008800000000000088800000000000008F74
:103D3000880000000000008FF80008888888808FC5
:103D4000F8008899988F888FF888898898FFF88874
:103D50008898899998FFFF898B9889989888FF8916
:103D60008898899998FFFF88B88888999888888B5F
:103D700088988988999998888B9889998888898F53
:103D8000FF888898B899898F88F8088BB899898FA7
:103D900088F808BB8888988FFF88088880088888FA
:103DA0008880000000000000000000000000008883
:103DB000800000000000008F880008888888808FBD
:103DC000F8008899988F888FF800898898FFF8887C
:103DD0008880899998FFFF898B8889989888FF88BF
:103DE000B898899998FFFF8B8B98889998888888CC
:103DF000889889889999988FFF8889998888898F68
:103E000088F88898B899898F88F8088BB899898F2D
:103E1000FF8808BB88889888888008888008880080
:103E20000000088880088888888008BB8888988F68
:103E3000FF88088BB899898F88F88898B899898FF6
:103E400088F889998888898FFF88898899999888BE
:103E50008B9888999888888B8898899998FFFF888B
:103E6000B88889989888FF898898899998FFFF89E8
:103E70008B98898898FFF88888988899988F888F78
:103E8000F88808888888808FF80000000000008F7C
:103E9000F80000000000008F88000000000000888B
:103EA0008000088880088800000008BB88889888FF
:103EB0008880088BB899898FFF888898B899898FEE
:103EC00088F889998888898F88F889889999988F3E
:103ED000FF888899988888888898899998FFFF8BA7
:103EE0008B9889989888FF88B898899998FFFF8956
:103EF0008B88898898FFF88888808899988F888F20
:103F0000F80008888888808FF80000000000008F83
:103F10008800000000000088800000000000000011
:103F20000000000088800000000000008B888000F6
:103F3000000000008BBB8000000000008BBB88806D
:103F40000000000088BBBB80000000000888BB8820
:103F50008000000008BBB8BB80000000088BBBB825
:103F600080000000088BBBB88000000008BBB8BB15
:103F7000800000000888BB888000000088BBBB80F0
:103F8000000000008BBB8880000000008BBB80001D
:103F9000000000008B888000000000008880000086
:103FA00000000000088888000000000088BBB800FE
:103FB000000000088BBB880000000008BBBB80002D
:103FC000000000088BB880000007000888BB8880CC
:103FD00000070008BBB8BB80000700088BBBB88097
:103FE000000700088BBBB88000070008BBB8BB8087
:103FF0000007000888BB8880000700088BB8800095
:1040000000070008BBBB8000000000088BBB8800D5
:104010000000000088BBB80000000000088888008D
:104020000000000088800000000000008B888000F5
:10403000000000008BBB8000000000008BBB88806C
:104040000000000088BBBB80000000000888BB881F
:104050008000000008BBBBBB80000000088BBBB821
:1040600080000000088BBBB88000000008BBBBBB11
:10407000800000000888BB888000000088BBBB80EF
:10408000000000008BBB8880000000008BBB80001C
:10409000000000008B888000000000008880000085
:1040A00000000000088888000000000088BBB800FD
:1040B000000000088BBB880000000008BBBB80002C
:1040C000000000088BB880000007000888BB8880CB
:1040D00000070008BBBBBB80000700088BBBB88093
:1040E000000700088BBBB88000070008BBBBBB8083
:1040F0000007000888BB8880000700088BB8800094
:1041000000070008BBBB8000000700088BBB8800CD
:104110000000000088BBB80000000000088888008C
:10412000000000000000000000000000888800007F
:10413000000000008BB888000000000088BBB88039
:10414000000000000888BB880000000008BBB8B869
:1041500080000000088BBBBB80000000088BB8B853
:104160008000000008BBBBB8800000000888BBBB13
:104170008000000088BBBB88800000008BBBB8803B
:10418000000000008BBBB800000000008B88880096
:104190000000000088800000000000000000000017
:1041A00000000000000000000000000008888800F7
:1041B0000000000888BBB80000000008BBBB8800F6
:1041C0000007000888B8880000070008BBB8B8805E
:1041D000000700088BBBBB80000700088BB8B880C5
:1041E00000070008BBBBB8800007000888BBBB8085
:1041F000000700088BB8888000070008BBBB800060
:10420000000700088BBB88000007000088BBB800CF
:104210000000000008888800000000000000000086
:104220000000000000000000000000008880000086
:10423000000000008B888800000000008BBBB800E5
:10424000000000008BBBB8800000000088BBBB886A
:10425000800000000888BBBB8000000008BBBBB822
:1042600080000000088BB8B880000000088BBBBB42
:104270008000000008BBB8B8800000000888BB8838
:104280000000000088BBB880000000008BB88800E8
:10429000000000008888000000000000000000000E
:1042A00000000000000000000000000008888800F6
:1042B0000000000088BBB800000000088BBB88002D
:1042C00000070008BBBB8000000700088BB888808F
:1042D0000007000888BBBB8000070008BBBBB88094
:1042E000000700088BB8B880000700088BBBBB80B4
:1042F00000070008BBB8B8800007000888B888002D
:1043000000070008BBBB88000007000888BBB80096
:104310000007000008888800000700000000000077
:10432000000700000000000000000000000000087E
:104330008880000000000088AA8800888880008AA1
:10434000AAA8088AAA88888AAAA808AA8AA8AA88DD
:104350008AB808AAAAAA8BBB8BB808AAAAAA88B846
:10436000BBB808AAAAAA88B8B8B808AAAAAA88B8DE
:10437000B8B808AA8AA8888BBB88088AAA88008847
:104380008880008888800008AA80000000000088DB
:10439000AA8000000000008AA880000000000088B9
:1043A0008800000000000088880000000000008AEB
:1043B000A880000000000088AA8000088888000803
:1043C000AA800088AAA880888880008AA8AA888BEA
:1043D000BB88008AAAAAA8B8B8B8008AAAAAA8B8AE
:1043E000B8B8008AAAAAA8B8BBB8008AAAAAA8BB6B
:1043F0008BB8008AA8AA8A888AB80088AAA8888A5E
:10440000AAA800088888008AAAA8000000000088DE
:10441000AA8800000000000888800000000000005A
:1044200000000000000000000888000000000000FC
:1044300008A800000000000088A80000000000009C
:104440008AA80088888800008AA8088AAAA888887C
:104450008AA808AAAAAAAAA88AA808AAAAAA8AAA66
:104460008AA808AAAAAA8AAAAAA808AAAAAA8AAA54
:104470008AA808AAAAAAAA8AAAA8088AAAA8888A88
:10448000AAA800888888008AAAA8000000000088DE
:10449000AA880000000000088880000000000000DA
:1044A0000000000000000000000000000000000804
:1044B0008880000000000088AA8800088888808A18
:1044C000AAA80088AAAA888AAAA8008AAAAAAA8A48
:1044D000AAA8008AAAAAA8AA8AA8008AAAAAA8AAF8
:1044E000AAA8008AAAAAA8AA8AA8008AAAAAAAA8E8
:1044F0008AA80088AAAA88888AA8000888888000D4
:104500008AA80000000000008AA800000000000047
:1045100088A800000000000008A8000000000000BB
:1045200008880000000000000000000088880000EB
:10453000000000888AA880000000088A8AAA88886B
:10454000888008AAAAAA88BBBB8808AAAAAA8BB88E
:10455000B8B808AAAAAA8BB8B8B808AA8AA8BBBAD9
:10456000ABB808AAAAAAAAA88AB8088AAAAA888A56
:10457000AAB800888888808AAB880000000000887C
:10458000AAB80000000000088AB800000000000877
:10459000AA880000000000088880000000000000D9
:1045A00000000000088880000000000888AA880039
:1045B00000000088A8AAA8000000008AAAAAA8886B
:1045C0008800008AAAAAA88BB880008AAAAAA8B8DC
:1045D000BB88008AA8AA8BB8B8B8008AAAAAAAAAD7
:1045E000B8B80088AAAAAAAAABB800088888888A9E
:1045F000AAB8000000000088AAB8000000000888DF
:10460000AB880000000088AA8AB8000000008A8AEF
:10461000AAB8000000008888AA88000000000008EE
:10462000888000000000000000000000000000087A
:104630008880000000000008AA8800000000000830
:104640008AB8000000000088AAB800888888808A9C
:10465000AB88088AAAAA888AAAB808AAAAAAAAA875
:104660008AB808AA8AA8BBBAABB808AAAAAA8BB803
:10467000B8B808AAAAAA8BB8B8B808AAAAAA88BBC8
:10468000BB88088A8AAA8888888000888AA88000CF
:10469000000000008888000000000000000000000A
:1046A00000000000000000088880000000008888EA
:1046B000AA88000000008A8AAAB80000000088AA20
:1046C0008AB8000000000888AB880000000000885D
:1046D000AAB800088888888AAAB80088AAAAAAAABC
:1046E000ABB8008AAAAAAAAAB8B8008AA8AA8BB8A6
:1046F000B8B8008AAAAAA8B8BB88008AAAAAA88BB8
:10470000B880008AAAAAA88888000088A8AAA80059
:104710000000000888AA88000000000008888000C7
:1047200000000000000000000000000008888888E9
:104730008000000888EEEEEE88000088EE88888809
:10474000E880008E888F88C88E80088EFF8888C891
:104750008E8008E8FF808CCC8E8008E888808CCC26
:104760008E8008E800008CCC8E8008E880008CCC1D
:104770008E80088E800088C88E80008E888008C851
:104780008E800088EE888888E880000888EEEEEE4B
:104790008800000008888888800000000000000071
:1047A000000000000088888880000000888EEEEEFF
:1047B000880000088EE88888E8000008E888F88803
:1047C000E8800088E88888C88E80008E8FF888C8C6
:1047D0008E80008E8FF88CCC8E80008E88888CCC5A
:1047E0008E80008E80008CCC8E80008E80008CCCE1
:1047F0008E80008E880088C88E800088E80008C8F7
:104800008E800008E8880888E88000088EE888889C
:10481000E8000000888EEEEE88000000008888889E
:104820008000000000000000000000000888888868
:104830008000000888EEEEEE88000088EE88888808
:10484000E880008E888F88C88E80088EFF8888C890
:104850008E8008E8FF808CCC8E8008E888808CCC25
:104860008E8008E800008CCC8E8008E880008CCC1C
:104870008E80088E800088C88E80008E888008C850
:104880008E800088EE888888E880000888EEEEEE4A
:104890008800000008888888800000000000000070
:1048A000000000000088888880000000888EEEEEFE
:1048B000880000088EE88888E8000008E888F88802
:1048C000E8800088E88888C88E80008E8FF888C8C5
:1048D0008E80008E8FF88CCC8E80008E88888CCC59
:1048E0008E80008E80008CCC8E80008E80008CCCE0
:1048F0008E80008E880088C88E800088E80008C8F6
:104900008E800008E8880888E88000088EE888889B
:10491000E8000000888EEEEE88000000008888889D
:104920008000000000000000000000000888888867
:104930008000000888EEEEEE88000088EE88888807
:10494000E880008E888F88C88E80088EFF8888C88F
:104950008E8008E8FF808CCC8E8008E888808CCC24
:104960008E8008E800008CCC8E8008E880008CCC1B
:104970008E80088E800088C88E80008E888008C84F
:104980008E800088EE888888E880000888EEEEEE49
:10499000880000000888888880000000000000006F
:1049A000000000000088888880000000888EEEEEFD
:1049B000880000088EE88888E8000008E888F88801
:1049C000E8800088E88888C88E80008E8FF888C8C4
:1049D0008E80008E8FF88CCC8E80008E88888CCC58
:1049E0008E80008E80008CCC8E80008E80008CCCDF
:1049F0008E80008E880088C88E800088E80008C8F5
:104A00008E800008E8880888E88000088EE888889A
:104A1000E8000000888EEEEE88000000008888889C
:104A20008000000000000000000000000888888866
:104A30008000000888EEEEEE88000088EE88888806
:104A4000E880008E888F88C88E80088EFF8888C88E
:104A50008E8008E8FF808CCC8E8008E888808CCC23
:104A60008E8008E800008CCC8E8008E880008CCC1A
:104A70008E80088E800088C88E80008E888008C84E
:104A80008E800088EE888888E880000888EEEEEE48
:104A9000880000000888888880000000000000006E
:104AA000000000000088888880000000888EEEEEFC
:104AB000880000088EE88888E8000008E888F88800
:104AC000E8800088E88888C88E80008E8FF888C8C3
:104AD0008E80008E8FF88CCC8E80008E88888CCC57
:104AE0008E80008E80008CCC8E80008E80008CCCDE
:104AF0008E80008E880088C88E800088E80008C8F4
:104B00008E800008E8880888E88000088EE8888899
:104B1000E8000000888EEEEE88000000008888889B
:104B2000800000088888888880000008FFFFF8EE71
:104B3000800088888FFFF8EE80008EEEE88888E895
:104B4000888888E8E88EE8888898088EEE8EEEE8F7
:104B50008998008EEEEEEE8E8898008EEEE8E88E54
:104B60008B88008EEEE8E88E8B80008EEEEEEE8E67
:104B70008880088EEE8EEEE8898088E8E88EEE88E0
:104B8000FF888EEEEEEEE88F88F888888E8E8E8F06
:104B900088F8000088888888FF88000000000008E6
:104BA0008880000088888888880000008FFFFF8E3A
:104BB000E800088888FFFF8EE80008EEEE88888EFF
:104BC0008800088E8E88EE8888800088EEE8EEE8FF
:104BD00089800008EEEEEEE888800008EEEE8E8E0A
:104BE0008B800008EEEE8E8E8B880008EEEEEEE8ED
:104BF00088980088EEE8EEE88998088E8E88EE8F17
:104C0000F89808EEEEEEE8F88F88088888E8E8F86B
:104C10008F8000000888888FF880000000000088DE
:104C20008800000000000088880000008888888FC5
:104C3000F88008888E8E88F88F8008EEEEEEE8FE09
:104C4000E880088EEEEEEE8EE9800088EEEEE888D1
:104C500089800008EEEE8BB888800008EEEE8B8B22
:104C60008B800008EEEE8B8B8B880008EEEE8BB805
:104C700088980088EEEEE88B8998088EEEEEEE8834
:104C8000889808EEEEEEE8E8888808888E8E88EE30
:104C900080000008FFFFF8EE800000088888888800
:104CA000800000000000088880000008888888FFD5
:104CB00088008888E8E88F88F8008EEEEEEE8FEEA8
:104CC000F88888EEEEEEE8EE8898088EEEEEE8883A
:104CD0008998008EEEEE8BB88898008EEEEE8B8B66
:104CE0008B88008EEEEE8B8B8B80008EEEEE8BB879
:104CF0008880088EEEEEE88B898088EEEEEEE888FC
:104D000089808EEEEEEE88E888808888E8E8FF8E5D
:104D1000E80000088FFFFF8EE80000008888888880
:104D20008800000000000088800000000008888FD4
:104D3000880000008888EE8FF80000088E88EEE872
:104D4000F8880888EEEE8E88F89808EEEEEE8E8EE3
:104D500089980888EEEEEE8E88980008EEEEEEEE6A
:104D60008B880088EEE8EEEE8B88088EEE88EEE801
:104D7000B89808EE8EEEEEE889980888EEEEEE8F91
:104D8000F888000888E8E8F88F800000088888F82C
:104D90008F8000000000088FF8800000000000886D
:104DA00088000000000000000000000000888888E3
:104DB00080000008888EE88F88000088E88EEE8FDB
:104DC000F800888EEEE8E888F8008EEEEEE8E88ECF
:104DD0008880888EEEEEEE8E8B88008EEEEEEE8E64
:104DE0008898088EEE8EEEE8B99888EEE88EEE8808
:104DF00088988EE8EEEEEE8FF888888EEEEEE8F872
:104E00008F8000888E8E88F88F8000008888888F39
:104E1000F88000000000008888000000000000000A
:104E20000000000000000088880000000000088FDB
:104E3000F8800000088888F88F80000888E8E8F883
:104E40008F800888EEEEEE8FF88808EE8EEEEEE8A2
:104E50008998088EEE88EEE8B8980088EEE8EEEEC5
:104E60008B880008EEEEEEEE8B880888EEEEEE8E74
:104E7000889808EEEEEE8E8E89980888EEEE8E8881
:104E8000F89800088E88EEE8F88800008888EE8F91
:104E9000F80000000008888F8800000000000088EB
:104EA00080000000000000000000000000000088FA
:104EB000880000008888888FF88000888E8E88F8A7
:104EC0008F80888EEEEEE8F88F808EE8EEEEEE8F23
:104ED000F88888EEE88EEE888898088EEE8EEEE8E8
:104EE000B998008EEEEEEE8E8898888EEEEEEE8EFD
:104EF0008B888EEEEEE8E88E8880888EEEE8E88873
:104F0000F8000088E88EEE8FF8000008888EE88FA1
:104F100088000000008888888000000000000000F1
:104F20000000088888888888800008FFFFFFF8FF55
:104F30008000088FFFFFF8FF800008888888888835
:104F4000800008FFFF88F8E8888888FFFF88F8EE6F
:104F50008EF88FFFFF8FFF88A8F88FFFFFF8F88F7C
:104F60008E888FFF8FF8F88F8E808F88FF8FFF8855
:104F7000A88088FF8F88F888888008FFFF88F899C4
:104F80009988088FFFFF8898989800888888889863
:104F9000989800000000089999880000000008888F
:104FA00088800088888888888800008FFFFFFF8FAE
:104FB000F8000088FFFFFF8FF80000888888888F3E
:104FC0008800008FFFF88F888880088FFFF88F8E09
:104FD0008E8008FFFFF8FFF8A88008FFFFFF8F8F83
:104FE0008E8008FFF8FF8F8F8E8808F88FF8FFF803
:104FF000A8F8088FF8F88F888EF8008FFFF8899945
:1050000098880088FFFFF989898000088888898945
:10501000898000000000899998800000000088883D
:105020008800000000088888800000000008999926
:1050300088000088888898889800088FFFFF88EE8D
:10504000980008FFFFFFF8E8888888FF8FFFF88A3C
:105050008EF88F88FFFF88AA88F88FFF8FFF88AAB5
:105060008E888FFFFFFF88AA8E808FFFFFFF88AAA0
:10507000888088FFFFFFF88A8E8008FFFFFFF8E82E
:105080008880088FFFFF8888880000888888FF8FC5
:10509000F800008FFFFFFF8FF8000088888888885D
:1050A00088000000000088888800000000008999BE
:1050B000988000088888898889800088FFFFF88E9A
:1050C000E980008FFFFFFF88E880088FF8FFFF8AE4
:1050D0008E8008F88FFFF8AA888008FFF8FFF8AAEA
:1050E0008E8008FFFFFFF8AA8E8808FFFFFFF8AA4E
:1050F00088F8088FFFFFFF8A8EF8008FFFFFFF8878
:1051000088880088FFFFF8888000088F888888FFDB
:10511000800008FFFFFFF8FF8000088888888888E3
:105120008000000000000088800000000000008F68
:10513000880000888888808FF800088FFF8F888F0C
:10514000F80008FFFFF8FF88888088FFFFFFF88FCE
:105150008E888FFFFF8FF888A8F88FFF8F88FF8ECB
:105160008EF88FF8FF88F88888F88F8F8FFFF8996E
:10517000998888FFFFFF8898989808FFFFFF889814
:105180009898088FFFF888999988008888880888F7
:105190008880000000000000000000000000000007
:1051A0000000000000000088800000000000008F68
:1051B000880000088888888FF8000088FFF8F88F3A
:1051C000F888008FFFFF8FF8F8F8088FFFFFFF883F
:1051D0008EF808FFFFF8FF8F88F808FFF8F88FF8BF
:1051E000888808FF8FF88F88A88808F8F8FFFF8E56
:1051F00088E8088FFFFFF8888EE8008FFFFFF89996
:1052000099880088FFFF889898980008888888986F
:10521000989800000000089999880000000008880C
:105220008880000000000000000000000000000076
:1052300000000088888808888880088FFFF888998F
:10524000998808FFFFFF8898989888FFFFFF889843
:1052500098988F8F8FFFF89999888FF8FF88F88832
:1052600088F88FFF8F88FF8E8EF88FFFFF8FF8886A
:10527000A8F888FFFFFFF88F8E8808FFFFF8FF88E7
:105280008880088FFF8F888FF80000888888808F3B
:10529000F80000000000008F880000000000008877
:1052A0008000000000000888888000000000089945
:1052B000998800088888889898980088FFFF8898BF
:1052C0009898008FFFFFF8999988088FFFFFF8885A
:1052D0008EE808F8F8FFFF8E88E808FF8FF88F88BF
:1052E000A88808FFF8F88FF8888808FFFFF8FF8F74
:1052F00088F8088FFFFFFF888EF8008FFFFF8FF878
:10530000F8F80088FFF8F88FF88800088888888FF8
:10531000F80000000000008F8800000000000088F6
:105320008000000000088888000000000088FFF866
:1053300080000000888FFFFF800000088FFFF88842
:1053400080000088FFFFFFE88000008FFFFFFFFE66
:105350008880088FF88FFF8E8E8808FF8888F88EE7
:10536000EEE808FF8898F88EEEE8088FF88FFF8E39
:10537000E8E8008FFFFFFFFE88E80088FFFFFFE8F6
:10538000888800088FFFF88880000000888FFFFF62
:10539000800000000088FFF8800000000008888876
:1053A000000000000088888000000000088FFF884F
:1053B0000000000888FFFFF800000088FFFF8888D1
:1053C0000000088FFFFFFE88000008FFFFFFFFE8D6
:1053D000888088FF88FFF8E8EE888FF8898F8FEE45
:1053E000EEE88FF8888F8FEEE8E888FF88FFF8EE08
:1053F00088E808FFFFFFFFE88888088FFFFFFE8826
:1054000000000088FFFF88880000000888FFFFF880
:1054100000000000088FFF880000000000888880DE
:105420000000000000088888000000000088FFF8E5
:1054300080000000888FFFFF800000088FFFF88841
:1054400080000088FFFFFFE88888008FFFFFFFFED5
:1054500088E8088FFFFFFFFEE8E808FFFFFFFFFE78
:10546000EEE808FFFFFFFFFEEEE8088FFFFFFFFEFC
:105470008E88008FFFFFFFFE88800088FFFFFFE817
:10548000800000088FFFF88880000000888FFFFFF1
:10549000800000000088FFF8800000000008888875
:1054A000000000000088888000000000088FFF884E
:1054B0000000000888FFFFF800000088FFFF8888D0
:1054C0000000088FFFFFFE88000008FFFFFFFFE8D5
:1054D000888888FFFFFFFFEE88E88FFFFFFFFFEE61
:1054E000E8E88FFFFFFFFFEEEEE888FFFFFFFFE831
:1054F000EE8808FFFFFFFFE88880088FFFFFFE8827
:1055000000000088FFFF88880000000888FFFFF87F
:1055100000000000088FFF880000000000888880DD
:105520000000000000088888800000000088FFFF5D
:1055300080000000888FF8F8800000088FFFFF8847
:1055400000000088F88FFFE88000008F8898F88EB0
:105550008880088F8888F88E8E8808FFF88FFF8EE5
:10556000EEE808FFFFFFFFFEEEE808FFFFFF888E72
:10557000E8E8088FFFF8FFF888E8008FFFF8FF8E53
:105580008E880088FFFFFFF88880000888FFF88871
:1055900000000000088888000000000000000000F3
:1055A0000000000000000000000000000088888863
:1055B00000000000088FFFF80000000888FF8F88B7
:1055C00000000088FFFFF8800000088F88FFFE8839
:1055D000000008F8888F88E8888088F8898F8FE82D
:1055E000EE888FFF88FFF8EEEEE88FFFFFFFFFEEFB
:1055F000EEE88FFFFFF888EEE8E888FFFF8FFF8E68
:1056000088E808FFFF8FF8E88E88088FFFFFFF8883
:10561000888000888FFF88800000000088888000D4
:105620000000000000000000000000000888880062
:105630000000000888FFF88800000088FFFFFFF8DE
:105640008880008FFFF8FF8E8E88088FFFF8FFF8A4
:1056500088E808FFFFFF888EE8E808FFFFFFFFFEED
:10566000EEE808FFF88FFF8EEEE8088F8888F88E46
:105670008E88008F8898F88E88800088F88FFFE8E1
:10568000800000088FFFFF8800000000888FF8F876
:10569000800000000088FFFF80000000000888886C
:1056A0008000000088888000000000888FFF8880CC
:1056B0000000088FFFFFFF88888008FFFF8FF8E851
:1056C0008E8888FFFF8FFF8E88E88FFFFFF888EEB7
:1056D000E8E88FFFFFFFFFEEEEE88FFF88FFF8EEB0
:1056E000EEE888F8898F8FE8EE8808F8888F88E8D8
:1056F0008880088F88FFFE8800000088FFFFF88000
:105700000000000888FF8F8800000000088FFFF865
:1057100000000000008888880000000000000000F1
:10572000000008953D7F77D430D50E94E33331FDEA
:105730000CC000912506085200930B02009126062A
:10574000085100930C020E943F02089500E000936C
:1057500030060093290600932A0618EEE1D4089536
:1057600000912A060A9500932A06003009F0089550
:1057700000E00093290600932A06089510912A0656
:105780001C3019F409E300933307183019F40AE3C5
:1057900000933307143019F40BE30093330700919F
:1057A0002A060A9500932A06003009F0089508EEAB
:1057B0000093330701E026D300912F0610912E06A7
:1057C000011729F000912F060F5F00932F0600E0CC
:1057D0000093290600932A06089510912A06103195
:1057E00039F403E000930D0604E000930E061AC09E
:1057F0001C3039F402E000930D0605E000930E061C
:1058000011C0183039F401E000930D0606E0009352
:105810000E0608C0143031F400E000930D0607E0D6
:1058200000930E0600912A060A9500932A0600307E
:1058300009F0089500E00093290600932A060895D0
:1058400010912A06103109F423C01F3039F401E009
:1058500000930D0606E000930E061AC01C3039F4C2
:1058600002E000930D0605E000930E0611C018300B
:1058700039F403E000930D0604E000930E0608C01F
:10588000143031F404E000930D0603E000930E069B
:1058900000912A060A9500932A06003009F008951F
:1058A000306105E00093290600E100932A0608957F
:1058B00010912A061C3019F409E3009333071830BD
:1058C00019F40AE300933307143019F40BE300933F
:1058D000330700912A060A9500932A06003009F042
:1058E000089508EE0093330700912D060C3361F004
:1058F000A9D200912B0610912C06011729F00091D6
:105900002C060F5F00932C0600E0009329060093FD
:105910002A0608953E7F00912106013009F4C4C390
:1059200000E010911F06113009F401E01F3F09F457
:105930000FEF109120061F3F09F400EF113009F41A
:1059400000E1003009F40895102F109332061CD3A3
:1059500000912406003841F436D201E00093290674
:1059600000E100932A060895A0D133FD089527D3BE
:1059700033FD0895E4D233FD0895316024D201E06F
:105980000093290600E100932A06089510912A0643
:105990001C3028F000913D07015000933D07009115
:1059A0002A060A9500932A06003009F0089500910E
:1059B0003B0726D000E100933E0700E00093290654
:1059C00000932A06089510912A061C3028F00091B1
:1059D0003D07015000933D0700912A060A95009368
:1059E0002A06003009F0089510913B0714D000E119
:1059F00000933E0700E00093290600932A060895CD
:105A000000932D060B53013009F0039500932F06E8
:105A100000932E060895135400912C06010F009355
:105A20002C0600912B0610912C06011720F40091F2
:105A30002B0600932C06089510912A061C3028F09E
:105A400000913D07015000933D0700912A060A95F9
:105A500000932A06003009F0089510913B0709D001
:105A600000E100933E0700E00093290600932A0618
:105A70000895175400912F06010F00932F060091EF
:105A80002E0610912F06011720F400912E06009388
:105A90002F06089598D110912A06193078F00091B8
:105AA000250610912706010F009325060091260672
:105AB00010912806010F009326060EC000912506BE
:105AC00010912706011B00932506009126061091D0
:105AD0002806011B0093260600912A060A950093CA
