:100000000C9486351895000018950000189500008E
:10001000189500001895000018950000189500002C
:10002000189500001895000018950000189500001C
:10003000189500001895000018950000189500000C
:1000400018950000189500001895000018950000FC
:100050001895000018950000189500000C94900069
:1000600018950000189500001895000018950000DC
:10007000189500000C94F90C1895000018950000D4
:1000800018950000189500001895000018950000BC
:1000900018950000189500001895000018950000AC
:1000A0001895000018950000189500000F931F93F5
:1000B0000BE91FE001501040E9F7000000001F911C
:1000C0000F910F931F930CE91FE001501040E9F7C7
:1000D0000000000000001F910F910150104089F7AF
:1000E000000008952F930AD10E94280D2F910895A2
:1000F00003E004BD0AE005BD0EE407BD00916E00FB
:10010000016000936E000895EF93FF9300E010E00C
:10011000E1E0F2E001931A95E9F7FF91EF9108957C
:100120000F931F930FB70F93109101021395109324
:1001300001021F3F29F00F910FBF1F910F911895DA
:10014000D1DFF9CF00911D0606950091040208F455
:100150000395000F2BF00DF0039500930402089512
:10016000DDF3FBCF000306090D101316191C1F2227
:1001700025282B2E3134373A3C3F4244474A4C4FD6
:10018000515456585B5D5F61636567696A6C6E6F59
:10019000717274757677797A7A7B7C7D7E7E7F7FCB
:1001A0007F7F7F7F7F7F7F7F7F7F7F7E7E7D7C7B6A
:1001B0007A7A797776757472716F6E6C6A69676531
:1001C00063615F5D5B585654514F4C4A4744423F10
:1001D0003C3A3734312E2B2825221F1C19161310B8
:1001E0000D09060300FDFAF7F3F0EDEAE7E4E1DEBE
:1001F000DBD8D5D2CFCCC9C6C4C1BEBCB9B6B4B1A8
:10020000AFACAAA8A5A3A19F9D9B99979694929104
:100210008F8E8C8B8A898786868584838282818172
:1002200081808080808080808181818282838485BA
:10023000868687898A8B8C8E8F9192949697999BCC
:100240009D9FA1A3A5A8AAACAFB1B4B6B9BCBEC1CD
:10025000C4C6C9CCCFD2D5D8DBDEE1E4E7EAEDF005
:10026000F3F7FAFD326000910A0200930602089546
:100270000895AF93BF930091300611E001270093DA
:10028000300607D000910B0200930702BF91AF9197
:100290000895A0E4B6E00C910F3F09F40895083FDB
:1002A00018F411E001270C935096F5CF05D000917A
:1002B0000C02009308020895EF93FF93E0E0F1E051
:1002C0000081102F003540F4067031F43BDF003818
:1002D00018F401E010271083EA9591F7FF91EF9150
:1002E0000895EF93FF93E5E0F2E024E000E001934E
:1002F0002A95E9F7FF91EF9108950895009105027D
:10030000015020F00093050209F4B2DF00910602CB
:10031000015020F00093060209F4A4DF00910702C7
:10032000015020F00093070209F4A3DF00910802B6
:10033000015020F00093080209F4B8DF08950093FB
:100340000E0210930F020F931770106B012F6AD6D5
:100350000F910F930F7066D60F91007F0295006189
:1003600061D608950FEF002E00911306023009F4B4
:1003700062C0033009F456C0053009F446C00430A9
:1003800009F44AC0EF93FF93CF93DF9310E01F93DC
:10039000C3E1D2E0110F110F110FC10F00E0D01F08
:1003A000169516951695009111020195060DC7DF59
:1003B0005C9A082D0F93199116950795199116952A
:1003C0000795199116950795199116950795199105
:1003D00016950795199116950795199116950795F4
:1003E00019911695079500210EBDE8960F910A9573
:1003F00009F71F911395183050F20DB507FFFDCF87
:10040000DF91CF91FF91EF91089500911406002E96
:100410000295002A0094B6CF00911406002E029592
:10042000002AB0CF009114060695109115061017FA
:1004300008F0A8CF089500911406069510911506AE
:10044000101708F49FCF10E01F930091110201953F
:10045000060D75DF5C9A082D0F930DB507FFFDCFD4
:1004600000E00EBD0F910A95B9F71F911395183052
:1004700058F30DB507FFFDCF089500911002083E17
:1004800008F008958619803009F462C088150CF0D0
:100490000895813F0CF40895971990340CF0089555
:1004A000913F0CF40895E0EEFBE100E010911002A2
:1004B0001695079516950795E00FF11F70E000E17E
:1004C0000F9380300CF490C0881510F00F910895B0
:1004D000C3E1D2E000E0182F169507951695079511
:1004E000C00FD11F903024F0092F10E0C00FD11F92
:1004F00036FD7EC000E1903408F078C00F937F9302
:1005000000E0769508F40F5F769508F40E5FE70F2C
:1005100010E0F11F1491E71BF040003021F0110FA3
:10052000110F0A95E1F717FD039516FD039501FFDD
:100530000883CF5FDF4F7F9173950F9193950A9555
:10054000D1F6905183950F910A9509F0B9CF08958E
:1005500010E1811609F0A0CF97199F3208F09DCFC6
:10056000E0EEFBE100E0109110021695079516955C
:100570000795E00FF11FC3E1D2E0092F10E0C00F93
:10058000D11F36FD5BC000E10F9304E00F9315917E
:1005900000E017FD039516FD039501FF0883CF5F6B
:1005A000DF4F00E015FD039514FD039501FF08835F
:1005B000CF5FDF4F00E013FD039512FD039501FFB0
:1005C0000883CF5FDF4F00E011FD039510FD039519
:1005D00001FF0883CF5FDF4F0F910A95B9F6E096D0
:1005E0000F910A9589F60895705FACCF7395A6CFE9
:1005F00000E1903408F50F937F9300E0769508F4BE
:100600000F5F769508F40E5FE70F10E0F11F14916D
:10061000E71BF040003021F0110F110F0A95E1F7B0
:1006200017FD01E016FD01E009937F9173950F918D
:1006300093950A95F1F685CF7395FACF00E10F9364
:1006400004E00F93159100E017FD01E016FD01E0B5
:10065000099300E015FD01E014FD01E0099300E0BD
:1006600013FD01E012FD01E0099300E011FD01E03E
:1006700010FD01E009930F910A9519F7E0960F918B
:100680000A95E9F60895EF93FF93CF93DF93C3E1C3
:10069000D2E0E0E0F4E000E00993E150F040E1F75F
:1006A000DF91CF91FF91EF91089508950091140685
:1006B000003059F00A9500931406102F1C77009112
:1006C0001202011B00931202089500E0009313062A
:1006D00000931406089500911406003021F00A9545
:1006E00000931406089500E0009313060093140687
:1006F0000895009114060030B1F00A950093140695
:1007000021DD102F1370125000911102010F009380
:10071000110218DD102F1370125000911202010FF8
:1007200000931202089500E000931306009314064C
:10073000089500911306003009F408950130C9F2BC
:10074000023071F0033009F4B1CF043021F20530EA
:1007500011F200E000931306009314060895089523
:1007600000911406003061F00A950093140610E120
:10077000101B1C7700911202010F009312020895C2
:1007800000E000931306009314060895EF93FF937F
:10079000CF93DF9380911102807F90911202907F1E
:1007A00000E00093150670901202082F10911102BC
:1007B000011B003C28F0005F802E609011020CC0ED
:1007C000003860F5003728F000580195802E682E1B
:1007D00003C000E1802E682E306405E00F93E0E056
:1007E000F1E0082F0295092B10E0E00FF11F0081C6
:1007F000009310028F939F9340DE9F918F91905FA3
:100800000F910A9559F73F7B0ED0ACDD009115068C
:100810000395009315069055805FC5CFDF91CF916A
:10082000FF91EF9108958F939F9324D034D03FD0C0
:1008300000913106083C09F014D05AD000913106DD
:10084000083C19F0CFD076D0A2D000913106083CF8
:1008500029F400911C06003009F4DAD09F918F91A1
:100860000895809164079091650703E80093100252
:1008700004DE0895A0E5B7E01D911F3F09F4089537
:100880000D901D9004E0101A802D912D10931002F0
:10089000F4DD1096F1CF00913306045080913206BA
:1008A000902F0091300600931002E7DD0895C0E319
:1008B000D6E0609618811F3FD1F0183FD1F3098030
:1008C0001A8004E0101ACF93DF93802D912D10939E
:1008D0001002D3DDDF91CF910D85003051F31CE084
:1008E000111A11E8802D912D10931002C6DD089584
:1008F00000914207045080914107902F00914007DA
:1009000000931002BADD009146070450809145071C
:10091000902F0091440700931002AFDD00914A0729
:10092000045080914907902F0091480700931002CE
:10093000A4DD0895009111020C5F002E00911202B7
:100940000C5C102E00913906003061F00F93802D61
:10095000912D02E80093100290DD15E0010E0F9139
:100960000A95A1F70091380610913906011B003055
:1009700009F408950F93802D912D03E80093100240
:100980007CDD15E0010E0F910A95A1F70895009105
:1009900011020459002E00911202045D102E0091E4
:1009A0003C060F93802D912D02E80093100265DD27
:1009B00015E0011A0F910A95A1F700913B061091DD
:1009C0003C06011B003009F408950F93802D912DF2
:1009D00003E80093100251DD15E0011A0F910A950A
:1009E000A1F708950090110200911202005D102EEF
:1009F000802D912D00E8009310023FDD10E7010EDD
:100A0000802D912D00913A060093100236DD089555
:100A1000009032061FE1011A1090330619E0110E02
:100A2000802D912D02E00093100227DD10E1010ED0
:100A3000802D912D03E0009310021FDD10E1010EC7
:100A4000802D912D04E00093100217DD10E1010EBE
:100A5000802D912D00E0009310020FDD1EE1011AA0
:100A600018E0110E802D912D05E00093100205DD98
:100A700010E1010E802D912D06E000931002FDDCA7
:100A800010E1010E802D912D07E000931002F5DC9E
:100A9000089510E01F9300E052DC00E80F9300E09F
:100AA000B6D20F910A95D1F71F911395183090F394
:100AB00008952F93003138F0003808F000E200511B
:100AC0002ED02F91089510E0013071F00A30F1F02E
:100AD0000D3071F002500894111F003011F00A958A
:100AE000FBCF00910D02102710930D022F91089556
:100AF00000910F020395083008F000E000930F0208
:100B000000910E0210910F021ADCF0CF00E000936A
:100B10000E0200910E0210910F0211DCE7CFEF934D
:100B2000FF9310E0000FE02FF0E0000F111FE00F27
:100B3000F11FE259F24F26E0059169D22A95E1F7BB
:100B4000FF91EF910895183F08F00895EF93FF93F8
:100B5000E0EEFBE100E01695079516950795E00F8E
:100B6000F11F082F192FEBDB5C9A02E00F9300E1D5
:100B70000F93159100E070E017FD739516FD7395C6
:100B800070FB07F970E015FD739514FD739570FB0C
:100B900006F970E013FD739512FD739570FB05F96E
:100BA00070E011FD739510FD739570FB04F91591BC
:100BB00070E017FD739516FD739570FB03F970E0F7
:100BC00015FD739514FD739570FB02F970E013FD2C
:100BD000739512FD739570FB01F970E011FD73952B
:100BE00010FD739570FB00F90EBD32960F910A95BA
:100BF00009F0BECF9395082F192FA1DBFE970F9117
:100C00000A9509F0B3CF0DB507FFFDCFFF91EF9126
:100C10000895183F08F00895EF93FF93E0EEFBE18D
:100C200000E01695079516950795E00FF11F082F20
:100C3000192F85DB5C9A02E00F9300E10F93159169
:100C400000E070E017FD739516FD739571FB07F9D1
:100C500070E015FD739514FD739571FB06F970E056
:100C600013FD739512FD739571FB05F970E011FD8D
:100C7000739510FD739571FB04F9159170E017FDE4
:100C8000739516FD739571FB03F970E015FD73956F
:100C900014FD739571FB02F970E013FD739512FD5D
:100CA000739571FB01F970E011FD739510FD73955B
:100CB00071FB00F900950EBD32960F910A9509F06F
:100CC000BDCF9395082F192F3ADBFE970F910A9508
:100CD00009F0B2CF0DB507FFFDCFFF91EF91089559
:100CE000219A229A01E00DBD0CE50CBD549A579A49
:100CF000569A5E9802E010E0D9D95F9802E010E0C1
:100D0000D5D95F9A0EEA8ED105ED8CD100EF8AD14C
:100D100008EA88D10FE386D103ED84D100E082D1C7
:100D200000E480D10DE87ED104E17CD100E27AD1EB
:100D300000E078D101EA76D108EC74D10AED72D1E5
:100D400002E170D101E86ED10FEE6CD109ED6AD1EC
:100D500001EF68D10BED66D100E364D104EA62D102
:100D600006EA60D10FEA5ED194DE0895089500008E
:100D70000000000000000000000000000000000073
:100D80000000000000000000000000000000000063
:100D90000000000000000000000000000000000053
:100DA0000000000000000000000000000000000043
:100DB0000000000000000000000000000000000033
:100DC0000000000000000000000000000000000023
:100DD0000000000000005F000000000700070000A6
:100DE000147F147F1400242A7F2A1200231308641E
:100DF0006200364955225000000503000000001C27
:100E0000224100000041221C000014083E0814008A
:100E100008083E08080000503000000008080808D4
:100E200008000060600000002010080402003E512D
:100E300049453E0000427F40000042615149460062
:100E40002141454B31001814127F100027454545BC
:100E500039003C4A4949300001710905030036490F
:100E600049493600064949291E000036360000006F
:100E70000056360000000814224100001414141417
:100E800014000041221408000201510906003249F1
:100E900079413E007E1111117E007F49494936009B
:100EA0003E41414122007F4141221C007F49494986
:100EB00041007F09090901003E4149497A007F0844
:100EC00008087F0000417F4100002040413F0100B1
:100ED0007F08142241007F40404040007F020C0206
:100EE0007F007F0408107F003E4141413E007F09A2
:100EF000090906003E4151215E007F09192946007B
:100F000046494949310001017F0101003F4040400D
:100F10003F001F2040201F003F4038403F00631427
:100F20000814630007087008070061514945430031
:100F3000007F414100000204081020000041417F71
:100F40000000040201020400404040404000000153
:100F5000020400002054545478007F484444380070
:100F6000384444442000384444487F0038545454A2
:100F70001800087E090102000C5252523E007F0800
:100F80000404780000447D4000002040443D0000FF
:100F90007F102844000000417F4000007C041804BA
:100FA00078007C08040478003844444438007C14F9
:100FB00014140800081414187C007C0804040800A9
:100FC000485454542000043F444020003C404020FA
:100FD0007C001C2040201C003C4030403C00442849
:100FE000102844000C5050503C004464544C4400C1
:100FF00000083641000000007F0000000041360874
:1010000000001008081008000000000000005C9AB2
:101010000EBD0DB507FFFDCF00910E0203950093A5
:101020000E0208955C980EBD0DB507FFFDCF089523
:10103000EE0FFF1F0591003009F408953ADDFACF55
:101040000895E0931906F0931A06FF91EF91EE0FC1
:10105000FF1F0591003011F02CDDFBCF3196F69586
:10106000E795EF93FF93E0911906F0911A06089522
:101070000191003009F408951CDDFACF089500E3D2
:1010800000931B0610E127E20DD018EE23E00AD0F2
:1010900014E620E007D01AE020E004D000E30E0FB1
:1010A00008DD089500E3E117F20720F0E11BF20BE1
:1010B0000395F9CF003331F410911B06103321F45E
:1010C00000E302C000931B06F4DC089500000E0E3E
:1010D0001030000000000101FF0000FF1819060693
:1010E0001838000001010000FF0001FF191A060670
:1010F0001038540001010001FF0001FF191B060810
:101100001840000001010101FF0001FF11130C0C48
:10111000204800000001010102040101101106082D
:101120001838000001020102FF0001FF1112080837
:101130001038550002020103FF0001FF1113080AD5
:101140001840000002020203FF0002FF11130C0C02
:1011500020480000000202030408010120210A0ABD
:101160001838540002030204FF0002FF21220A0C77
:101170001038540002030205FF0002FF21230C0C6B
:101180001840550003030305FF0003FF11130C0C67
:101190002048000000030305060E010123220C0E67
:1011A0001838540003040306FF0003FF46420E0EE6
:1011B0001038550003040506FF0003FF46420E0EDB
:1011C0001840550003040507FF0004FF11130E0E1D
:1011D00020300000000406070814010230310E0E12
:1011E0001030000000000101FF000003121216126F
:1011F00012123232323232301212161212361613E4
:1012000032323210173636363117121216131217C1
:10121000121713131212361036363112131312121C
:1012200012131313161212125636361213323212CA
:101230001212131313121210363615121310131242
:1012400012121213101231323232323212131313BD
:101250001212121213131312361012121216131343
:1012600012341333133313121212121212121313F5
:101270001014151413141313121212121212121343
:10128000131313121213131313311212303232329A
:101290003236101212131313131030121212303090
:1012A0003636361212121312351530121212171565
:1012B000303636361212131316311512121212313D
:1012C00015161212121212131231171212121232B2
:1012D0003232323212121212361513131212121245
:1012E0001212123116121212121213134E4F4E4ACC
:1012F0004B4A4B4A4B4F4E4F4F4C4E4E4E4C4A274B
:1013000024232323234A4C4F4E4F4E4C4D4B262033
:101310004B4A4B4A22234B4E4E4E4F4E4D272124D3
:10132000232223232322234D4E4C4D4E4C244F4841
:1013300023494A4C4B4F224C4E4E4E4F4C234E238A
:1013400022232348264E224D4E4C4F4C4D224E22F6
:101350004C222222234C224E4E4D4E4F4C224B4BC0
:101360004A4B4822484D224D4C4C4C4C4C22222595
:10137000252625252222234E4D4C4F4D4F4D22220E
:101380004B4A4B4A22224D4C4D4F4E4D4C4F4D2215
:1013900022232326234D4F4D4D4D4E4C4D4D4E4E49
:1013A0004D4E4D4D4E4C4C4C4C4E4F4C4F4F4F4F65
:1013B0004C4C4C4F4F4F4D4D4E4D4E4F4D4D4D4D56
:1013C0004D4D4F4D4F4F4D4E4E4F4F4C4D4D4F4D40
:1013D0004D4D4D4F4C4E4E4F4D4E4C4E4F4C4C4D37
:1013E0004E4E4F4C4D4F4C4D4F4C4E4E28282828BA
:1013F000282828282828282828282828282828286D
:10140000131211111028131228282828282828130D
:101410001211111010271211112828282828121231
:1014200011101010102711102B122828281211113A
:10143000101028101111111011121328282811282A
:1014400010102710282827280811122828111110F9
:101450001110281128121011101011282810101026
:1014600027282810281128282810102828102B1089
:101470001011111127112812111110282811101004
:1014800010282728271028111010112828111111B1
:1014900010101011111127111010112828282828B8
:1014A00027271010101010101010112828281312C0
:1014B00011111110101010102B1127282828281195
:1014C0001110101027111011112828282828282859
:1014D000111110102813111128282828282828282D
:1014E00028282828282828282828282808080809FB
:1014F0000908080808080909080808080A09090964
:101500000A0909080808080909090A090908080850
:10151000090A090909080808080809090909080841
:1015200008080809090808080808080908092626FB
:101530002608262609092626080808080809262656
:101540000808260926092624260808080808260966
:101550000909260A26092624260909090908262632
:101560002609260A26092626090932090909090930
:1015700009090908090909090809090A08090908DE
:101580000908080808080808080808080808090AD7
:101590000909090808080808080808080808080AC6
:1015A0000A09090908080A090909080809080808B0
:1015B000080808090A0A09080808090909090808A1
:1015C000080808080808090908080809080A090994
:1015D0000808080808080809090808080808080988
:1015E0000908080808080808090909090E94A20052
:1015F0000F700030D9F30215C8F7A02FA0FF0AC062
:101600000E94A2000E700030D9F30315C8F70295AE
:10161000A02B08950E94A2000F7001600315D0F75F
:10162000F6CF0E94A2000F700030D9F30215C8F760
:10163000A02F0E94A2000F700030D9F30315C8F745
:101640000295A02B0895A0E0B1E0C0E5D7E07DD1E0
:10165000AF930EEF0C93346031601FEF6CD031FD0F
:10166000FBCF10EF68D031FDF7CF11E064D031FD32
:10167000F3CF10E160D031FDEFCF30FFEDCF32FD81
:1016800007C010E0811621F08A9402E503D102C060
:101690000DEF0C931FEF43D031FDDDCF10EF3FD0A6
:1016A00031FDD9CF11E03BD031FDD5CF10E137D09E
:1016B00031FDD1CF10E0E11649F098DF0C9105190A
:1016C0000830C0F70DEF0C93EA94F4CFB6D0A7D052
:1016D000AF9110E0611611F0062DDCD00FEF0883FA
:1016E000BDD01FEFF11611F01F2D08D0C0E4D6E0D9
:1016F00072D04BD10FEF0883B9D00895AF93BF9349
:10170000ECEEF1E100E0E00FF11FA0E0B1E010E04D
:1017100005910D931A95E1F7BF91AF9108953D7F23
:101720004FD10E3F09F008953260A10F0DEF0C93D9
:10173000A10F0C9308953D7F4AD10F3F09F0089502
:101740003E7F0E94A2000F3708F0089532603B7F71
:10175000A10F0EEF0C93A10F0C9308953F7D1881FC
:101760001F3F09F408950981007F02951A81107FB7
:10177000012B0A1302C0306208956096F0CFE6ECA8
:10178000F3E610E0000F111F000F111F000F111FD3
:10179000E00FF11F049108830E94D3340A2F0F70C9
:1017A000029509830A2F007F0A8305910B83049118
:1017B0000C8305910D8300E00E830F83088705914C
:1017C000098705910A8705910B8705910C8700E031
:1017D0000D8760960895092D003009F408950A9543
:1017E0000F93B3D00C9104190830D8F70E94A200CF
:1017F0001B2D1A19103089F0113049F00A1508F420
:101800000A0D011BB016E8F3BADF0F91E5CF00FD1A
:1018100002C00A2D01C00B2DF7CF0B2DF5CFE0E054
:10182000F1E000810D3F31F4142D0E94A2000770F9
:10183000100F1083EA95A9F70895E0E0F1E0108118
:101840001519183038F400890519083018F0150DED
:1018500014501083E395E03F90F3089576D00C91F7
:1018600004190830D8F700E50C9308956ED00C9158
:1018700004190830D8F7C0E4D6E070DF35FDF6CFA4
:101880000A2F0F700295009332060A2F007F0093F3
:101890003306089509930A2F0F70029509930A2FB2
:1018A000007F099307E50C93089500931C06ECEC68
:1018B000F0E110E0000F111F000F111F000F111FAA
:1018C000000F111FE00FF11FA0E0B0E010E1059143
:1018D0000D931A95E1F70E940B320E9438350E9451
:1018E000563500911C06003019F018D0ACDE089572
:1018F00010E004DF08E80093400700E5009341078B
:1019000008E60093420721D00A2F0F70029500933A
:1019100032060A2F007F009333060895A0E0B1E05D
:1019200010E000E00F93201630F1311620F100FF97
:101930001BC010FF19C00FEF0D930F9103950031DD
:1019400088F31395103168F308950E94A2000F7078
:101950000215D8F7A02F0E94A2000F700315D8F728
:101960000295A02BA16108950E94A200037004605B
:10197000050D0D93E2CF0E94A2000634A8F70E9445
:10198000A2000770040D0D93D8CF1FEFC11609F404
:101990000895DBDF0C9104190830D8F70C2DEFDE29
:1019A0006097DA8601E00D87609608951F3F21F465
:1019B000A1500DF4A05F0895A10F0DF4A05108955A
:1019C000AF93BF93F3DF0C91BF91AF910895AF93A5
:1019D000BF93ECDFEBDF0C91BF91AF91089500E076
:1019E00000937B0000E600937C000FEE00937A00EA
:1019F00008950F931F930FB70F93EF93FF930091E9
:101A00007C00102F015008F407E0139513FD10E639
:101A100010937C00EDE1F6E00770E00F10E0F11F9D
:101A2000009179000083FF91EF910F910FBF1F91FB
:101A30000F9118958F9A8D9A8E9A8C9A769A2C9AE5
:101A400000E000932C0600932D0600932E060895C7
:101A5000009125067F990BC00230A1F003950093F9
:101A60002506023079F40FEF00932D060BC00030ED
:101A700049F0023019F400E000932D0600E00093D5
:101A8000250600C0009126067D990BC00230A1F00A
:101A9000039500932606023079F40FEF00932C068D
:101AA0000BC0003049F0023019F400E000932C061E
:101AB00000E00093260600C0009127067E990BC027
:101AC0000230A1F0039500932706023079F401E07B
:101AD00000932C060BC0003049F0023019F400E0EE
:101AE00000932C0600E00093270600C00091280612
:101AF0007C990BC00230A1F00395009328060230B8
:101B000079F401E000932D060BC0003049F002305B
:101B100019F400E000932D0600E00093280600C0B1
:101B20000091290666990BC00230A1F0039500933D
:101B30002906023079F401E000932E060BC0003034
:101B400049F0023019F400E000932E0600E0009303
:101B5000290600C000912A061C990EC00230B9F077
:101B6000039500932A060230C1F501E000932E068A
:101B700008EC00932B0631C0003079F1023019F4E3
:101B800000E000932E0600E000932A0626C0009194
:101B90002B060A9500932B060030F9F400916000A3
:101BA0000861009360000EE000936000A895F8942F
:101BB00007E700930008009301080E9449050EE121
:101BC00012E00E949F013DDA426F6F74204D6F64F6
:101BD00065202E2E2E010000FFCF0895000C2D80D1
:101BE000FC000000FCAAAA8FFCA8AA8FFC00028FB0
:101BF000FC00028FFCAAAA8FFCAAA28FFC00000F97
:101C0000FCAA2A8FFCAAAA8FFCA0A28FFCA0A20F7C
:101C1000FC2AA28FFCAAA28FFC00000FFFFFFFFF8F
:101C2000FC000000FCAAAA8FFCA8AA8FFC00028F6F
:101C3000FC00028FFCAAAA8F00AAA28F1000000F3E
:101C400000280A8FF1004A8FF041028FFC14220F06
:101C5000FC14228FF041028FF100400FF03C0FFF87
:101C6000FFFFFFFFFFFFFFFFFFFFFFFFFFFFFFFF84
:101C7000FFFFFFFFFFFFFFFFFFFFFFFFFFFFFFFF74
:101C8000FFFFFFFFFFFFFFFFFFFFFFFFFC00000F55
:101C9000FC15454FFC55550FFC50004FFC50514F63
:101CA000FC14514FFC54554FFC00000FFC45554FA0
:101CB000FC55154FFC50014FFC10C14FFC54C54F53
:101CC000FC54C50F0000000F22A8AA8F2AAAAA8FD1
:101CD000280A000F28CA000F28CAA88F280AAA0FAE
:101CE0002AAA020F0AA2328FC000000FFCAAAA8FF4
:101CF000FC2AAA8FFC20020FFCA0028FFC2AAA8FCC
:101D0000FCAAAA8FFC000000FCA8AA88FCAAAA884A
:101D1000FCA00288FCA00288FCAAAAA8FCAA82A8AF
:101D2000FFFF003FFFFC150FFFFC404FFFFC444F3F
:101D3000FFFC454FFFFC000FFFFFC14FFFFFC44FEB
:101D4000FFFFC10FFFFF003FFFFF150FFFFF044F15
:101D5000FFFF000FFFFC150FFFFC404FFFFC404F43
:101D6000FFFC110FFFFC000FFFFC554FFFFC040FA1
:101D7000FFFFC14FFFFC000FFFFC454FFFFC0003BE
:101D8000FFFFC553FFFFC443FFFFC10FFFFFF00F6D
:101D9000FFFFFC4FFFFFC00FFFFFC54FFFFFC40F4A
:101DA000FFFFC14FFFFFF00FFFFFC14FFFFFC44F09
:101DB000FFFFC10FFFFF003FFFFF150FFFFF044FA5
:101DC000FFFFC00FFFFFFFFFFFFFFFFFFFFFFFFF52
:101DD000FFFFFFFFFFFFFFFFFFFFFFFFFFFFFFFF13
:101DE000FC000000FCAAAA8FFCA8AA8FFC00028FAE
:101DF000FC00028FFCAAAA8FFCAAA28FFC00000F95
:101E0000FCAA2A8FFCAAAA8FFCA0A28FFCA0A20F7A
:101E1000FC2AA28FFCAAA28FFC00000FFFFFFFFF8D
:101E2000FC000000FCAAAA8FFCA8AA8FFC00028F6D
:101E3000FC00028FFCAAAA8F00AAA28F1000000F3C
:101E400000280A8FF1004A8FF041028FFC14220F04
:101E5000FC14228FF041028FF100400FF03C0FFF85
:101E6000FFFFFFFFFFFFFFFFFFFFFFFFFFFFFFFF82
:101E7000FFFFFFFFFFFFFFFFFFFFFFFFFFFFFFFF72
:101E8000FFFFFFFFFFFFFFFFFFFFFFFFFC00000F53
:101E9000FC15454FFC55550FFC50004FFC50514F61
:101EA000FC14514FFC54554FFC00000FFC45554F9E
:101EB000FC55154FFC50014FFC10C14FFC54C54F51
:101EC000FC54C50F0000000F22A8AA8F2AAAAA8FCF
:101ED000280A000F28CA000F28CAA88F280AAA0FAC
:101EE0002AAA020F0AA2328FC000000FFCAAAA8FF2
:101EF000FC2AAA8FFC20020FFCA0028FFC2AAA8FCA
:101F0000FCAAAA8FFC000000FCA8AA88FCAAAA8848
:101F1000FCA00288FCA00288FCAAAAA8FCAA82A8AD
:101F2000FFFF003FFFFC150FFFFC404FFFFC444F3D
:101F3000FFFC454FFFFC000FFFFFC14FFFFFC44FE9
:101F4000FFFFC10FFFFF003FFFFF150FFFFF044F13
:101F5000FFFF000FFFFC150FFFFC404FFFFC404F41
:101F6000FFFC110FFFFC000FFFFC554FFFFC040F9F
:101F7000FFFFC14FFFFC000FFFFC454FFFFC0003BC
:101F8000FFFFC553FFFFC443FFFFC10FFFFFF00F6B
:101F9000FFFFFC4FFFFFC00FFFFFC54FFFFFC40F48
:101FA000FFFFC14FFFFFF00FFFFFC14FFFFFC44F07
:101FB000FFFFC10FFFFF003FFFFF150FFFFF044FA3
:101FC000FFFFC00FFFFFFFFFFFFFFFFFFFFFFFFF50
:101FD000FFFFFFFFFFFFFFFFFFFFFFFFFFFFFFFF11
:101FE00000040000000000000000000000000000ED
:101FF0000100000000000C0000000C0000000000C8
:102000000033000000F3C00000FF000000F3C0C078
:10201000007100000015000000000000000000003A
:1020200000040000000000000000000000000000AC
:102030000100000000000C0000000C000000000087
:1020400000FF000003C3C00003FF000003C3C0C0C3
:1020500001FD00000055000000000000000000002D
:102060000000000000000000000000000000000070
:10207000000001000000000000000000000000005F
:102080000000000000000000000000000000000050
:102090000000000000000000000000000000000040
:1020A000000000000000000000000000010000002F
:1020B0000000000000000000000000000000000020
:1020C000000000000400000000000000000000000C
:1020D00000000004000000000000000000000000FC
:1020E00000000000000000000001000000000000EF
:1020F00000030000000000000000000000000000DD
:1021000000000000000000000100000000000300CB
:10211000000000000000004000000000000000007F
:1021200004000000000000000000000000000000AB
:10213000000000000000030030000000000000006C
:102140000000000000000000000C0000003C000047
:10215000000F000000000000000000C004000000AC
:10216000000000000000000000000000000000006F
:10217000000030000000004000000040010003703B
:1021800001003D0000000C00000000000000000005
:1021900000000000000000C00C0000000000000073
:1021A000000000000000000000010000000000002E
:1021B000000003D000000C00000003D000000C0061
:1021C000000000D00000030003000000000000D069
:1021D000000003C0000000500000000000000000EC
:1021E000000000000000000000000080000000006F
:1021F0000200008000000A0000000000000000C093
:1022000000000300000800000000000000FC0000C7
:102210000000000000280200000000000000000094
:10222000000000000000000000000080000000002E
:1022300002000A800000000000000000000003C04F
:10224000000000000008000000000000000C00007A
:1022500000F0000000080200002000000000000064
:10226000000000000000000000000000000000006E
:10227000000000000000000000000000000000005E
:10228000000000000000000000000000000000004E
:10229000000000000000000000000000000000003E
:1022A000000000000000000000000000000000002E
:1022B00000000000000000000020000000000000FE
:1022C00000000000000000000000000000002000EE
:1022D00000000000000000000000000000000000FE
:1022E00000000000000000000000002000000000CE
:1022F00002000000000000000000000000000000DC
:1023000000000200000000000000000000000000CB
:1023100000000000000300000000000000000000BA
:10232000000000000000008000000000000000002D
:10233000000000000000000000000000000000009D
:10234000000000000000100000005000000010001D
:10235000000000000000000000200000003000002D
:102360000000C0000000C0000000000000000030BD
:10237000000000F0000000700020001000000000CD
:10238000000000000000000000001002000000003B
:10239000000000000000000000000000000000003D
:1023A0000000000000000000000300000001000029
:1023B000000000000000000000000000000000001D
:1023C000030000000C0000000700000001000000F6
:1023D00000000000000030000000000000000000CD
:1023E000100010000400080000000000004400403D
:1023F00000200020004800440102010208004400BF
:10240000100010000400C40000030202004C004849
:102410000020002000440044010201008800040064
:10242000100010000400480000010000004430408B
:102430000020CC2000483044010201024800440042
:10244000100010000400C40000030202004C004809
:102450000020002000440044010200000400440069
:10246000100010000000000000000100004000000B
:10247000000000000000000000000000000000005C
:102480000000000004000000000001000000000047
:1024900000000000000000400001000000000000FB
:1024A00010001000000000000000010200400000C9
:1024B00000000000000000040001000000004400D3
:1024C0000000100004104000000101000000004462
:1024D0000010000000440040000100000030000037
:1024E00010000000400080000100010100401004C5
:1024F0000010002000000004000100020800440059
:1025000010000000040040000004010000403044BE
:102510000000CC0010003004000001000400440062
:102520000000000000008000010001000044104095
:102530000010002000400004000101000800040019
:1025400010001000040004000001000000440044DA
:10255000000000001014000401010100000044000C
:1025600010001000040008000100000000440040BA
:10257000002000200048004401020102083044000D
:1025800010CC100004300400000202000048004893
:102590000020002000440044010200000400040068
:1025A000100010004400080000000000004400403B
:1025B000002000200048004401020102480044308D
:1025C000100010CC04000430000202000048004853
:1025D00000200020004400440102000000004400EC
:1025E0000002000000080200000802000008880045
:1025F0000008B800000AE408000BE400002FE42003
:1026000000202420022B9000023F9000089E4000F2
:102610000899000A009900082091002002800020FB
:102620000002000000020200000202000008080090
:10263000000824000008A420000A9000000B90006D
:10264000000A4200002E400002290000002900007C
:102650000899000A009000080090002002800020E5
:10266000020A00A002080080024000800A400240E6
:102670000A4002422E400242290009022420090891
:102680009020290880902D088080B9200002C58004
:102690000002FA800002E408008B900A0028002261
:1026A000000820020008800A0224800900509028B7
:1026B00002609024026290200A4250000982400089
:1026C0000982400024890000A08900008024A00223
:1026D00080909002820080090200A0080002200879
:1026E0000080022000000880020028900200B890BC
:1026F0000202FE400902FA4028020240240BF9209F
:102700001008E920000BE480000BA490000B9090CF
:102710000802A090090822402590A282A490822A53
:1027200024008000940020009020200080A89000C9
:1027300000B8902000B8902002BE9080260E4092F3
:1027400092FE409A92F9002E80A4002E00A4002E42
:1027500002900089024000890A000A29280020947A
:10276000080280A02008029020240A9008240880F3
:102770002C140240BE100240BE100920809024207C
:10278000BF909000BE029200BD020000BD2902422F
:10279000B68A000AAA8980082809800828098020AA
:1027A000800A020800080288000802E400080BE41E
:1027B00020200BE400208A9400024940000909020D
:1027C00000090402022910090A24000908A480242F
:1027D0002480009024000080200000808000000001
:1027E0000000000000480000201020000005201C10
:1027F0000201581000A05444380A15140282054002
:10280000002A85543C02804402A285440880104C72
:10281000000145100834041400100C0C00C0000026
:102820000010000000340000030480003001201C70
:102830000C81504008205504020A15100082054002
:10284000202A9550020A110400A215040008511C08
:1028500008015540008D10100004300C00300000BD
:10286000000D030423F7FD54000C0144000C030089
:10287000000C011008FDFD50000F0000000C0300CB
:10288000000C031008F7F55000000710000C0100C1
:102890000004010403D7F754000C0D04000C0100E0
:1028A0000000000000000038000000F0000CBE3CFA
:1028B000003F0030003F238C000A000000231AC8AC
:1028C0000003C000000CD688000A00000002750852
:1028D00000008C0000005948000000540000000077
:1028E00000000000032000380FC800F00FCCBE3CF1
:1028F00033F300303FF3238C3FF200003FB01AC89F
:102900003FC200003BB016883EE200002BA84508FD
:102910000F8000000EC85148031000140000000092
:1029200000000000000000000000001003FF00484D
:102930000FFFF0040FFFBF00333EEC483CEBFB04FD
:102940000F2AA0440F0005080C5450000155001434
:10295000000000480000002000000000000000000F
:102960000000000000000000000000100000000057
:1029700000240010003000440038008403EAFA54B8
:1029800006492494000800940024005400240014F4
:102990000000000000000010000000000000000027
:1029A00000000000000000000000000000300000F7
:1029B00000CC000003F300040F03C01030A8000493
:1029C0000AA8A0100AA2800402A200100088000435
:1029D00000200000000000000000000000000000D7
:1029E0003FF33110FFFF4444FFFF2310FFFF044477
:1029F00033FC3120FFF00044FFC288103C2AAA04B7
:102A0000F282AA10FC3CA004FFFF0110FFCF4C048F
:102A1000FFFF9110FFFFCC4433BD101000000000F9
:102A20003FF33110FFFF4444FFFF1320FFFF044436
:102A300033FC2110FFF00044FC322810F28AAA0473
:102A4000FC2AA210FFC02804FFFF0110FFCF4C0496
:102A5000FFFF2110FFFFCC4433BE10100000000028
:102A60003FC33110FFCF0444FF3F1010FF3F4C48DD
:102A70003CCF1110FFFFC444FFFC1110FFF00444D1
:102A8000FFFC1110FFFF0C443FFF0110FFFC0C4046
:102A9000FFFC1110FFFF0848373D31100000000017
:102AA0003FC33110F0CF0444FF3F3010FF3F444894
:102AB0003CCF1110FFF0CC44FFFC1110FFF0044498
:102AC000F3FC3110FFFF0C08333C0110FF300C40C9
:102AD000F3CC1110F0F30444073130100000000073
:102AE0003FF3FFF0FFFFFFDCFFFFFFDCFFFFFFF422
:102AF0003FFCFFDCFFF0FFD4FFFCFFFCFFFFFFD833
:102B0000FFFFFFF0FFFFFFF0FFFFFFDCFFFFFFD441
:102B1000FFFFFF10FFFFFF48337D72100000000031
:102B20003FFCFFF0FFF3FFDCFFFFF3D4FFFFF3F008
:102B3000FFFFC3DCFFFFF3DCFFFFFFDCFFFFFFD481
:102B40003FFFFFFC3FFCFFF0FFF0FFDCFFFFFF98C3
:102B5000FFFFF3D4FF33FF443DCDB6D000000000AB
:102B60003FC3F3F0FFCFFFDCFF3FFFD4FF3FFFDCAD
:102B70003CCFFFF0FFFFFFF0FFFCFFDCFFF0FFD8D2
:102B8000FFFCFFD8FFFFFFF03FFFFFFCFFFCFFB0A3
:102B9000FFFCFFF4FFFFFFD4373D7850000000003A
:102BA0003FC3F3F0FFCFFCDCFF3FFCD4FF3FFFDC73
:102BB0003CCFFFF0FFCFFFF0FFF0FFDCFCF0FFDCCD
:102BC000FFFCBFD4FFFFFFF03FFFF3F8F33CF3F04F
:102BD000FFCCCFB4FFF3FFD8373C3CA0000000008F
:102BE000A8A80010A8B88444A8BC1010A8B84440F5
:102BF00000E83010BCE00042B8A83F00FCA8C222A8
:102C0000FC00C2AAACB8C2AAB8F8C222A0BC3F005D
:102C100000B81002B8A84440E8E83010B8004044BA
:102C2000A8A80010A8B88444A8BC1010A8B84440B4
:102C300000E83012BCE00040B8A83F02FCA8C08801
:102C4000FC00C2AAACB8C2AAB8F8C088A0BC3F02B7
:102C500000B81000B8A84442E8E83010B80040447A
:102C6000A8280010BCF848C4ACFC1010B0FC884088
:102C700000BC1000B8B0440828881010BCA0004464
:102C8000F8000010E8B88440F0F82010A8B0044024
:102C900000B03000B8A84484B8241010BC000084F0
:102CA000BCA80010F8B88444B8B81010A8F0000010
:102CB00000F01000A0EC4484E8B8101088A000C414
:102CC000B8000010B0F800C080B83010A038C44080
:102CD00000882000EC284484E8881010A8000044F4
:102CE000A8A8A800A8B8A8F8A8BCACF8A4B8B8F8D8
:102CF00000E800B8BCE0F8A8B8A8A8B8FCA8B8A03C
:102D0000FC00BC00ACB8B8E8B8F8E428A0BCA43813
:102D100000B800B8B8A4E8A8E8E8AC28B800E8A86B
:102D2000A8F0A800BCF8B8E8ACFCB4B8B0FCA43C6F
:102D300000BC00BCB8B0E8B82888F8A0BC90E0A8F7
:102D4000F800B800E8B8A8F8F0F8B8B8A8B0A8E05B
:102D500000B000A0B8A8E888B828A0A0BC00E8ACE3
:102D6000BCA8E800F8B8F8ECB8B8FCB8A8F0A83CE3
:102D700000F000F8A0ECFCB8E8B4E8A88890A8B08F
:102D8000B8008800B0F8A0E880B888F8A038A0F8AB
:102D9000008800B8EC28E8E0E888A8A4A800A8907B
:102DA0003C3C280038B8F8EC38340C38A8F0A000C7
:102DB00000F000F8A0EC3CB8E8B8E8A48890A0B017
:102DC000B8008800B4F0A00080B084F8203090F8FB
:102DD000008800B8EC28F8E0E884B4A4A400A0249B
:102DE0002A905050AAA01054AA880410AAA810141F
:102DF0002A2330F4AAA0C00C02A8C03C2AA8300C98
:102E0000AA94C03CAAA0C00C2AA830F4A8A8101408
:102E1000AAA30414AA2004541514101000000000E2
:102E20002A445050AA801454AA201450AA2310D423
:102E3000288033F4AAA0F0F40228C0F42AA8303481
:102E4000AA94C0F4AAA0F0342AA003F4A2A310D438
:102E5000AA600454A8A01454151414100000000013
:102E60002A445050AA851454AA285450AA285454CD
:102E700028885414AAAA5454002050542A8000547C
:102E8000AA945454A8A454142AAA5454AAA8545432
:102E9000AA685054AAA95454151414100000000034
:102EA0002A821010A0885454AA285454AA28545492
:102EB00028895050AAA05444AAA85450AAA054004B
:102EC000A2A85410AAA9545422285454AA205454F5
:102ED000A2485454A0A04454051110100000000052
:102EE0002A802280AA88AA24AA289A44AA2AAAA4C4
:102EF0002889A8908000A6902A08AAA4AAA0AA645B
:102F0000AAA8AAA4AAA0229022AA0004AAA888502B
:102F1000AA68A904AAA96654151454500000000018
:102F20002A54A950A690AAA4AA94A2A4A208A29046
:102F3000A8A400006A2822A4AA28AAA48AA8A6A451
:102F400029A8AA842AA89A90A2A0AAA4AAA8AA6496
:102F5000A6A8A294AA226A44154555500000000074
:102F60002AA0A590AA68A964AA9AAAA4AAA9A89422
:102F70002AA8A2A40080AAA42A90A294AA59AAA42A
:102F8000AA99AA90AAA8A690A2A80200A2A8A824DA
:102F9000AAA89A10AA66AA44115451100000000071
:102FA0002A82A290AAA5A824AA2AA064AA2A82A456
:102FB00028898A90AAA9AA908050AA04286480002F
:102FC000AAA4AAA4AAA80A502A098294A024A2907A
:102FD000824889948AA166541514045000000000A8
:102FE00000000000000222800000002000A0542009
:102FF00002A84500020851200288440002A851207E
:103000000188442001A851200188442001685120F2
:1030100000505420000000200002A28000000000A8
:1030200000000000000122800000002000041420A5
:103030000004550000044120000451000004552004
:1030400000005120000455200004512000005520AC
:103050000004142000040020000162800000000031
:10306000F0000003C2AA8AA0C8008088C144852855
:10307000C5548548C5448148C554A848C5548848A6
:10308000C5548848C554A848C5148148C514854806
:10309000C1148528C8008088C2AA8AA0F000000355
:1030A000C00000030A844AA010810088148005280B
:1030B000148105481480054814A80548148801485F
:1030C0001488014814A8054814800548148105484F
:1030D00014800528108100880A844AA0C0000003DB
:1030E000FFFC03FF0000500F2815548F215401806E
:1030F000254A058405428084152A8A0014AA800482
:1031000014AA8004152A8A0005428084254A058471
:10311000215401802815548F0000500FFFFC03FF3D
:10312000003FFFFF2A000C0F0A05404FC810114056
:1031300005550504154180441541080014158144C6
:1031400014158144154108001541804405550504B6
:10315000C81011400A05404F2A000C0F003FFFFF26
:1031600000000000001152A000400008000AA280E8
:10317000004AAA88004AAA80000AAA8800400008DB
:1031800000005148004455480000554000440008E4
:10319000004015480040000800148AA0000000000C
:1031A000000000000000004000000110000004408A
:1031B0000000001000000444000010100000004453
:1031C0000000111000000044000011000000044441
:1031D000000000100000044000000110000000008A
:1031E000FFFFFFFFFC00003FF0A28A0FC2A82A8366
:1031F000CAA28AA3CAAAAAA3C22AA883C8AAAA231F
:10320000C8AAAA23C22AA883CAAAAAA3CAA28AA30E
:10321000C2A82A83F0A28A0FFC00003FFFFFFFFF35
:10322000FFF00FFFF002800FC28AA283CA2288A398
:10323000C8000023C223C8830803C0202A3FFCA87B
:103240002A3FFCA80803C020C223C883C80000236B
:10325000CA2288A3C28AA283F002800FFFF00FFF68
:10326000C0300C0305014050141004141003C004B6
:1032700000FFFF00C4FFFF1300FFFF0013FFFFC4A8
:1032800013FFFFC400FFFF00C4FFFF1300FFFF0098
:103290001003C0041410041405014050C0300C0386
:1032A000FC0FF03FFC4FF13FFC0FF03F03FFFFC06E
:1032B00013FFFFC403FFFFC0FFFFFFFFFFFFFFFF80
:1032C000FFFFFFFFFFFFFFFF03FFFFC013FFFFC470
:1032D00003FFFFC0FC0FF03FFC4FF13FFC0FF03F3E
:1032E000FFF003FFFF01503FF010013FC1008003DA
:1032F000C4000F13002080001302A804100AAA843F
:1033000010AAA8041402A0C0143283FF05020F0300
:10331000C5423C13C1540043F015540FFF0000FF99
:10332000FFFFFFFFFFF03FFFC0F13FFFC4F0303F62
:10333000C0FFC23FFF030803C0202813C428A00316
:10334000C00A83FF03C2A0FF130AA8FF1020000FCA
:103350001403FC4F05000C0FC1504FFFF0000FFF8E
:10336000FFFFFFFFF03FFFFFF13FFFFFF03FC0FF18
:10337000FFFFC8FFFFF000C003C28FC4130A0FC0D5
:10338000002A3FFFC0803FFFC40FFFFFC003F03F94
:10339000FF13F13FFF03F03FFFFFFFFFFFFFFFFFC2
:1033A000FFFFFFFFFFFFFFFFFFFFFFFFFFFFFFFF2D
:1033B000FFFFFFFFFFFFFFFFFFFC0FFFFFC04FFFFF
:1033C000FFC50FFFFFC03FFFFFFFFFFFFFFFFFFF36
:1033D000FFFFFFFFFFFFFFFFFFFFFFFFFFFFFFFFFD
:1033E000FFFFFFFFFFFFFFFFFFFFFC03FFFFF053A7
:1033F000FFFFC153FFFF0543FC0C150FFC40543F7A
:10340000FC1544FFFF0544FFF01500FFF0543FFF9B
:10341000F210FFFFF203FFFFF03FFFFFFFFFFFFF90
:10342000FFFFFFFFFFFFFFFFFFFFF00FFFFC014F5C
:10343000FFFC854FFFFCA10FFFF0883FFFC2AA3FB2
:10344000FF0A823FFC2A003FF0A83FFFF2A0FFFFE7
:10345000F003FFFFFFFFFFFFFFFFFFFFFFFFFFFF87
:10346000FFFFFF00FFFF0014FFFF1044FFFF0410E9
:10347000FFFF0103FFFC2043FFF0A813FFC2A003DE
:10348000FF0A83FFFC2A0FFFF0A83FFFC2A0FFFF47
:103490000A83FFFF2A0FFFFF003FFFFFFFFFFFFF31
:1034A000FFFC0F00FFFC4014FFFC5054FFFC515088
:1034B000FFF01443FFC28503FFCA0150FF0A0854FE
:1034C000FC28A800F0A2A0FFC28A03FF0AA83FFFC1
:1034D0002AA0FFFF2A83FFFF2A0FFFFF003FFFFF05
:1034E000FFFF0300FFFF1014FFFF1054FFFC045008
:1034F000FFF08503FFC20140FF08A014FC22A200D8
:10350000F08A883FC22A20FF08A883FF22A20FFF6B
:1035100022883FFF2820FFFF0A83FFFFC00FFFFF25
:10352000FFFFFF00FFFFFC14FFFFF044FFFFF1105F
:10353000FFFFC143F000080FC2A820FF0A8083FFED
:103540002A8203FF2A2823FF20A823FF22A2A3FF09
:10355000008AA3FF080A83FF20AA0FFF00003FFF95
:10356000FFFFFF00FFFC0C14FFFC8054FFFCA15088
:10357000FFF0A043FFC28A0FFF0A2A8FFC28A00F8A
:10358000F0A2A8FFC2AA00FF0AAA8FFF2AA00FFF7D
:103590002AA8FFFF2A00FFFF0A8FFFFFC00FFFFFCF
:1035A000FFFC0F00FFFC4014FFFC5054FFFC1550C3
:1035B000FFF00443FFC28543FF0A0050FC280814B3
:1035C000F0A02800C280A0FF0A8283FF2AAA0FFF72
:1035D0002AA83FFF2AA0FFFF2A83FFFF000FFFFF5B
:1035E000FFFFFFFFFFFFFFFFFFFFFC03FFFFF053A5
:1035F000FFFFC153FFFF0543FC0C150FFC40543F78
:10360000FC1544FFFF0544FFF01500FFF0543FFF99
:10361000F210FFFFF203FFFFF03FFFFFFFFFFFFF8E
:10362000FFFFFFFFFFFFFFFFFFFFF00FFFFC014F5A
:10363000FFFC854FFFFCA10FFFF0883FFFC2AA3FB0
:10364000FF0A823FFC2A003FF0A83FFFF2A0FFFFE5
:10365000F003FFFFFFFFFFFFFFFFFFFFFFFFFFFF85
:10366000FFFFFF00FFFF0014FFFF1044FFFF0410E7
:10367000FFFF0103FFFC2043FFF0A813FFC2A003DC
:10368000FF0A83FFFC2A0FFFF0A83FFFC2A0FFFF45
:103690000A83FFFF2A0FFFFF003FFFFFFFFFFFFF2F
:1036A000FFFC0F00FFFC4014FFFC5054FFFC515086
:1036B000FFF01443FFC28503FFCA0150FF0A0854FC
:1036C000FC28A800F0A2A0FFC28A03FF0AA83FFFBF
:1036D0002AA0FFFF2A83FFFF2A0FFFFF003FFFFF03
:1036E000FFFF0300FFFF1014FFFF1054FFFC045006
:1036F000FFF08503FFC20140FF08A014FC22A200D6
:10370000F08A883FC22A20FF08A883FF22A20FFF69
:1037100022883FFF2820FFFF0A83FFFFC00FFFFF23
:10372000FFFFFF00FFFFFC14FFFFF044FFFFF1105D
:10373000FFFFC143F000080FC2A820FF0A8083FFEB
:103740002A8203FF2A2823FF20A823FF22A2A3FF07
:10375000008AA3FF080A83FF20AA0FFF00003FFF93
:10376000FFFFFF00FFFC0C14FFFC8054FFFCA15086
:10377000FFF0A043FFC28A0FFF0A2A8FFC28A00F88
:10378000F0A2A8FFC2AA00FF0AAA8FFF2AA00FFF7B
:103790002AA8FFFF2A00FFFF0A8FFFFFC00FFFFFCD
:1037A000FFFC0F00FFFC4014FFFC5054FFFC1550C1
:1037B000FFF00443FFC28543FF0A0050FC280814B1
:1037C000F0A02800C280A0FF0A8283FF2AAA0FFF70
:1037D0002AA83FFF2AA0FFFF2A83FFFF000FFFFF59
:1037E000FFFFFFFFFFFFFFFFFFFFFC03FFFFF053A3
:1037F000FFFFC153FFFF0543FC0C150FFC40543F76
:10380000FC1544FFFF0544FFF01500FFF0543FFF97
:10381000F210FFFFF203FFFFF03FFFFFFFFFFFFF8C
:10382000FFFFFFFFFFFFFFFFFFFFF00FFFFC014F58
:10383000FFFC854FFFFCA10FFFF0883FFFC2AA3FAE
:10384000FF0A823FFC2A003FF0A83FFFF2A0FFFFE3
:10385000F003FFFFFFFFFFFFFFFFFFFFFFFFFFFF83
:10386000FFFFFF00FFFF0014FFFF1044FFFF0410E5
:10387000FFFF0103FFFC2043FFF0A813FFC2A003DA
:10388000FF0A83FFFC2A0FFFF0A83FFFC2A0FFFF43
:103890000A83FFFF2A0FFFFF003FFFFFFFFFFFFF2D
:1038A000FFFC0F00FFFC4014FFFC5054FFFC515084
:1038B000FFF01443FFC28503FFCA0150FF0A0854FA
:1038C000FC28A800F0A2A0FFC28A03FF0AA83FFFBD
:1038D0002AA0FFFF2A83FFFF2A0FFFFF003FFFFF01
:1038E000FFFF0300FFFF1014FFFF1054FFFC045004
:1038F000FFF08503FFC20140FF08A014FC22A200D4
:10390000F08A883FC22A20FF08A883FF22A20FFF67
:1039100022883FFF2820FFFF0A83FFFFC00FFFFF21
:10392000FFFFFF00FFFFFC14FFFFF044FFFFF1105B
:10393000FFFFC143F000080FC2A820FF0A8083FFE9
:103940002A8203FF2A2823FF20A823FF22A2A3FF05
:10395000008AA3FF080A83FF20AA0FFF00003FFF91
:10396000FFFFFF00FFFC0C14FFFC8054FFFCA15084
:10397000FFF0A043FFC28A0FFF0A2A8FFC28A00F86
:10398000F0A2A8FFC2AA00FF0AAA8FFF2AA00FFF79
:103990002AA8FFFF2A00FFFF0A8FFFFFC00FFFFFCB
:1039A000FFFC0F00FFFC4014FFFC5054FFFC1550BF
:1039B000FFF00443FFC28543FF0A0050FC280814AF
:1039C000F0A02800C280A0FF0A8283FF2AAA0FFF6E
:1039D0002AA83FFF2AA0FFFF2A83FFFF000FFFFF57
:1039E000FFFFFFFFFFFFFFFFFFFFFFFFFC000003E4
:1039F000F0AAAAA0020000082805554828C41148CA
:103A000028C555482805554802000008F0AAAAA074
:103A1000FC000003FFFFFFFFFFFFFFFFFFFFFFFFB3
:103A2000FFFFFFFFFFFFC00FFFFF0A83FFFC202007
:103A30000000850828AA15482800514828C51548BF
:103A400028C555482800544828AA1548000085086C
:103A5000FFFC2020FFFF0A83FFFFC00FFFFFFFFFD7
:103A6000FFFFFFFFFFF0000FFFC2AA83FF08002047
:103A700000205508288155482805514828C5154873
:103A800028C5554828055448288155480020550820
:103A9000FF080020FFC2AA83FFF0000FFFFFFFFF17
:103AA000FFC000FFFF0AA83FFC20020FFC815080EE
:103AB000008554282805550828C5154828C55548A7
:103AC00028C5544828C54548280555080085542868
:103AD000FC815080FC20020FFF0AA83FFFC000FFBE
:103AE000FFFFFFFFFFFFFFFFFFFFFFFFFFFFFFFFE6
:103AF000FFFFFFFFFFC03FFFFFC5000FFFC5554F92
:103B0000FFC5000FFFC13FFFFFF03FFFFFFFFFFFBB
:103B1000FFFFFFFFFFFFFFFFFFFFFFFFFFFFFFFFB5
:103B2000FFFFFFFFFFFFFFFFFFFFFFFFFFFFFFFFA5
:103B3000FFFFFFFFFC003FFFFCA2000FFC84554F7E
:103B4000FC84554FFCA2000FFC223FFFFF003FFF0B
:103B5000FFFFFFFFFFFFFFFFFFFFFFFFFFFFFFFF75
:103B6000FFFFFFFFFFFFFFFFFFFFFFFFFC003FFF27
:103B7000FCAA3FFFFC8A3FFFF0AA000FF128554F37
:103B8000F128554FF0AA000FFCA23FFFFCAA3FFF0F
:103B9000FC003FFFFFFFFFFFFFFFFFFFFFFFFFFFF7
:103BA000FFFFFFFFFC03FFFFC0A03FFFCAAA3FFFCC
:103BB000C2883FFFF288FC0FC288004FC489554F6E
:103BC000C489554FC288004FF288FC0FC2883FFF5E
:103BD000CAAA3FFFC0A03FFFFC03FFFFFFFFFFFF9C
:103BE000FFFFFFFFFFFFFFFFFF003FFFFC2A0FFF6C
:103BF000FCAA83FFFCA2A0FFFC2AA83FFF0AAA3F61
:103C0000FF0AAA3FFC2AA83FFCAAA0FFFCAA83FF48
:103C1000FC2A0FFFFF003FFFFFFFFFFFFFFFFFFF3B
:103C2000FFFFFFFFFFFFFFFFFFFFFFFFFFC00FFFD3
:103C3000FFC543FFFFC053FFFFF153FFFFF053FFEA
:103C4000FFF053FFFFF153FFFFC053FFFFC543FFDA
:103C5000FFC00FFFFFFFFFFFFFFFFFFFFFFFFFFFA3
:103C6000FFFFFFFFFFFFFFFFFFFFFFFFFFFFFFFF64
:103C7000FFFFFFFFFFF00FFFFFC283FFFFC8A3FF9F
:103C8000FFCAA3FFFFC283FFFFF00FFFFFFFFFFF8D
:103C9000FFFFFFFFFFFFFFFFFFFFFFFFFFFFFFFF34
:103CA000FFFFFFFFFFFFFFFFFFFFFFFFFFFFFFFF24
:103CB000FFFFFFFFFFF00FFFFFC143FFFFC413FF34
:103CC000FFC413FFFFC143FFFFF00FFFFFFFFFFF24
:103CD000FFFFFFFFFFFFFFFFFFFFFFFFFFFFFFFFF4
:103CE000FFFFFFFFFFFFFFFFFF003FFFFC2A0FFF6B
:103CF000FCAA83FFFCA2A0FFFC2AA83FFF0AAA3F60
:103D0000FF0AAA3FFC2AA83FFCAAA0FFFCAA83FF47
:103D1000FC2A0FFFFF003FFFFFFFFFFFFFFFFFFF3A
:103D2000FFFFFFFFFFFFFFFFFFFFFFFFFFC00FFFD2
:103D3000FFC543FFFFC053FFFFF153FFFFF053FFE9
:103D4000FFF053FFFFF153FFFFC053FFFFC543FFD9
:103D5000FFC00FFFFFFFFFFFFFFFFFFFFFFFFFFFA2
:103D6000FFFFFFFFFFFFFFFFFFFFFFFFFFFFFFFF63
:103D7000FFFFFFFFFFF00FFFFFC283FFFFC8A3FF9E
:103D8000FFCAA3FFFFC283FFFFF00FFFFFFFFFFF8C
:103D9000FFFFFFFFFFFFFFFFFFFFFFFFFFFFFFFF33
:103DA000FFFFFFFFFFFFFFFFFFFFFFFFFFFFFFFF23
:103DB000FFFFFFFFFFF00FFFFFC143FFFFC413FF33
:103DC000FFC413FFFFC143FFFFF00FFFFFFFFFFF23
:103DD000FFFFFFFFFFFFFFFFFFFFFFFFFFFFFFFFF3
:103DE000C000000FC515514FC105514F0AA0020F69
:103DF000288540032A805223208550832A85522318
:103E00002A855220208550882A80502828854540C0
:103E10000AA02413C10A8413C5400543C00FC00F74
:103E2000C000003FC455453FC115453F0A80083FCB
:103E3000288540002A805228208550882A854220E3
:103E40002A854223208550832A805023288541508B
:103E50000AA02104C10A8104C5400150C00FF0032B
:103E6000C03FC00FC50C0543C1408013084A215311
:103E7000222A214322AA882322AA888322AA8823CD
:103E800022AA882022AA888822AA8828222A2200F8
:103E9000084A203FC140853FC515453FC000003F4F
:103EA000C03F003FC50C150FC140804F084A214F4D
:103EB000222A220022AA882822AA888822AA8820C8
:103EC00022AA882322AA888322AA8823222A2203BC
:103ED000084A200FC140814FC515514FC000000F47
:103EE000FFFFF03FFFFFF10FFFFFF14FC000314F29
:103EF0000A810140208540082A85522828805208DE
:103F00002A8550800A80020820AA80282A00215091
:103F1000084A2104C14A2104C5008150C03C000365
:103F2000FFFFFFFFFFFFF03FFFFFF10FC000314F2A
:103F30000A81014F208540032A855220288050881D
:103F40002A8552280A80000820AA81502A002104CC
:103F5000084A2104C14A2150C5008003C03C0FFF1C
:103F6000C03C0003C5008150C14A2104084A210415
:103F70002A00215020AA80280A8002082A85508021
:103F8000288052082A855228208540080A8101404D
:103F9000C000314FFFFFF14FFFFFF10FFFFFF03F78
:103FA000C03C0FFFC5008003C14A2150084A2104CC
:103FB0002A00210420AA81500A8000082A8552285C
:103FC000288050882A855220208540030A81014F8D
:103FD000C000314FFFFFF10FFFFFF03FFFFFFFFF7A
:103FE000C000000FC515514FC105514F0AA0020F67
:103FF000288540032A805223208550832A85522316
:104000002A855220208550882A80502828854540BE
:104010000AA02413C10A8413C5400543C00FC00F72
:10402000C000003FC455453FC115453F0A80083FC9
:10403000288540002A805228208550882A854220E1
:104040002A854223208550832A8050232885415089
:104050000AA02104C10A8104C5400150C00FF00329
:10406000C03FC00FC50C0543C1408013084A21530F
:10407000222A214322AA882322AA888322AA8823CB
:1040800022AA882022AA888822AA8828222A2200F6
:10409000084A203FC140853FC515453FC000003F4D
:1040A000C03F003FC50C150FC140804F084A214F4B
:1040B000222A220022AA882822AA888822AA8820C6
:1040C00022AA882322AA888322AA8823222A2203BA
:1040D000084A200FC140814FC515514FC000000F45
:1040E000FFFFF03FFFFFF10FFFFFF14FC000314F27
:1040F0000A810140208540082A85522828805208DC
:104100002A8550800A80020820AA80282A0021508F
:10411000084A2104C14A2104C5008150C03C000363
:10412000FFFFFFFFFFFFF03FFFFFF10FC000314F28
:104130000A81014F208540032A855220288050881B
:104140002A8552280A80000820AA81502A002104CA
:10415000084A2104C14A2150C5008003C03C0FFF1A
:10416000C03C0003C5008150C14A2104084A210413
:104170002A00215020AA80280A8002082A8550801F
:10418000288052082A855228208540080A8101404B
:10419000C000314FFFFFF14FFFFFF10FFFFFF03F76
:1041A000C03C0FFFC5008003C14A2150084A2104CA
:1041B0002A00210420AA81500A8000082A8552285A
:1041C000288050882A855220208540030A81014F8B
:1041D000C000314FFFFFF10FFFFFF03FFFFFFFFF78
:1041E000C000000FC515514FC105514F0AA0020F65
:1041F000288540032A805223208550832A85522314
:104200002A855220208550882A80502828854540BC
:104210000AA02413C10A8413C5400543C00FC00F70
:10422000C000003FC455453FC115453F0A80083FC7
:10423000288540002A805228208550882A854220DF
:104240002A854223208550832A8050232885415087
:104250000AA02104C10A8104C5400150C00FF00327
:10426000C03FC00FC50C0543C1408013084A21530D
:10427000222A214322AA882322AA888322AA8823C9
:1042800022AA882022AA888822AA8828222A2200F4
:10429000084A203FC140853FC515453FC000003F4B
:1042A000C03F003FC50C150FC140804F084A214F49
:1042B000222A220022AA882822AA888822AA8820C4
:1042C00022AA882322AA888322AA8823222A2203B8
:1042D000084A200FC140814FC515514FC000000F43
:1042E000FFFFF03FFFFFF10FFFFFF14FC000314F25
:1042F0000A810140208540082A85522828805208DA
:104300002A8550800A80020820AA80282A0021508D
:10431000084A2104C14A2104C5008150C03C000361
:10432000FFFFFFFFFFFFF03FFFFFF10FC000314F26
:104330000A81014F208540032A8552202880508819
:104340002A8552280A80000820AA81502A002104C8
:10435000084A2104C14A2150C5008003C03C0FFF18
:10436000C03C0003C5008150C14A2104084A210411
:104370002A00215020AA80280A8002082A8550801D
:10438000288052082A855228208540080A81014049
:10439000C000314FFFFFF14FFFFFF10FFFFFF03F74
:1043A000C03C0FFFC5008003C14A2150084A2104C8
:1043B0002A00210420AA81500A8000082A85522858
:1043C000288050882A855220208540030A81014F89
:1043D000C000314FFFFFF10FFFFFF03FFFFFFFFF76
:1043E000FF03FFFFFF103FFFFF153FFFFF1503FF18
:1043F000FF0553FFFFC0503FFFC5453FFFC1543F7E
:10440000FFC1543FFFC5453FFFC0503FFF0553FF6D
:10441000FF1503FFFF153FFFFF103FFFFF03FFFFE7
:10442000FFC00FFFFF054FFFFC150FFFFC553FFFBF
:10443000FC143FFFFC0503FFFC5453FFFC1543FF36
:10444000FC1543FFFC5453FFFC0503FFFC143FFF26
:10445000FC553FFFFC150FFFFF054FFFFFC00FFF8F
:10446000FF03FFFFFF103FFFFF153FFFFF1503FF97
:10447000FF0553FFFFC0503FFFC5553FFFC1543FED
:10448000FFC1543FFFC5553FFFC0503FFF0553FFDD
:10449000FF1503FFFF153FFFFF103FFFFF03FFFF67
:1044A000FFC00FFFFF054FFFFC150FFFFC553FFF3F
:1044B000FC143FFFFC0503FFFC5553FFFC1543FFB5
:1044C000FC1543FFFC5553FFFC0503FFFC143FFFA5
:1044D000FC553FFFFC150FFFFF054FFFFFC00FFF0F
:1044E000FFFFFFFFFF00FFFFFF140FFFFF0543FF6C
:1044F000FFC050FFFFC5443FFFC1553FFFC1443FD0
:10450000FFC5543FFFC0553FFF05503FFF1543FF18
:10451000FF154FFFFF100FFFFF03FFFFFFFFFFFF20
:10452000FFFFFFFFFFC00FFFFC054FFFFC550FFF14
:10453000FC040FFFFC5443FFFC1553FFFC1443FF26
:10454000FC5543FFFC0553FFFC1403FFFC553FFFE4
:10455000FC150FFFFF054FFFFFC00FFFFFFFFFFF21
:10456000FFFFFFFFFF03FFFFFF100FFFFF154FFFD0
:10457000FF1543FFFF05503FFFC0553FFFC5543FA8
:10458000FFC1443FFFC1553FFFC5443FFFC050FF3F
:10459000FF0543FFFF140FFFFF00FFFFFFFFFFFFBB
:1045A000FFFFFFFFFFC00FFFFF054FFFFC150FFFD1
:1045B000FC553FFFFC1403FFFC0553FFFC5543FF74
:1045C000FC1443FFFC1553FFFC5443FFFC040FFF96
:1045D000FC550FFFFC054FFFFFC00FFFFFFFFFFF64
:1045E000FFFFFFFFFFFFFC03FFFFF0A0F003F2A8B7
:1045F000C2A002A8CA28A024CAAA1514CAAA045490
:10460000CAAA0444CAAA0444CA280150C2A0F0039A
:10461000F003FCA3FFFFF0A3FFFFF283FFFFF00F07
:10462000FFFFF00FFFFFF283FFFFF0A3FC00FCA3EE
:10463000F0A83003F28A0150F2AA8444F2AA84441A
:10464000F2AA8454F2AA8514F28A2024F0A802A8BF
:10465000FC00F2A8FFFFF0A0FFFFFC03FFFFFFFF3D
:10466000FFFFFFC0FFFFFFC8FFFFFF08FFFFFF289E
:10467000F000FF28C2A80028CAAAA828CAAA2A2887
:10468000CAAA2AA8CAAA2A28CAAAA2A8C2A802A84C
:10469000F000F2A8FFFFF0A0FFFFFC03FFFFFFFF09
:1046A000FFFFFFFFFFFFFC03FFFFF0A0FC0032A8AD
:1046B000F0AA02A8F2AAA2A8F2AA8A28F2AA8AA8B4
:1046C000F2AA8A28F2AAA828F0AA0028FC003F280B
:1046D000FFFFFF28FFFFFF08FFFFFFC8FFFFFFC02E
:1046E000FFFFFFFFFF00FFFFF0283FFFC22A00038C
:1046F000CAAA0550CAAA1444CAAA1444CA2856947D
:10470000CAAAA824C2AA02A4F0003290FFFFF0A413
:10471000FFFFFC24FFFFFCA0FFFFFC03FFFFFFFFE8
:10472000FFC03FFFFC0A0FFFF08A8FFFF2AA800F45
:10473000F2AA8143F2AA8450F28A1444F2AAAA444B
:10474000F0AAAA94FC0002A4FFFFF0A4FFFFC0900F
:10475000FFFF0A24FFFF22A4FFFF00A0FFFFFC03CE
:10476000FFFFFFFFFFFFFC03FFFFFCA0FFFFFC2498
:10477000FFFFF0A4F0003290C2AA02A4CAAAA824A3
:10478000CA285694CAAA1444CAAA1444CAAA0550EC
:10479000C22A0003F0283FFFFF00FFFFFFFFFFFFDB
:1047A000FFFFFC03FFFF00A0FFFF22A4FFFF0A247E
:1047B000FFFFC090FFFFF0A4FC0002A4F0AAAA949F
:1047C000F2AAAA44F28A1444F2AA8450F2AA8143BB
:1047D000F2AA800FF08A8FFFFC0A0FFFFFC03FFF95
:1047E000FFFFFFFFFFC0003FFC0AAA0FF0A00083FD
:1047F000F2020423C2A00423C8A31523C80315236F
:10480000C8FF1523C83F1523C23F0423F203C42366
:10481000F0A00083FC0AAA0FFFC0003FFFFFFFFFCC
:10482000FFF0003FFF02AA0FFC28008FFC8080836E
:10483000F0800423F2280423F2281523F200152324
:10484000F23F1523F23F1523F20F0423F08FC42308
:10485000FC80C083FC28008FFF02AA0FFFF0003FFE
:10486000FFFFFFFFFFC0003FFC0AAA0FF0A000837C
:10487000F2020423C2A00423C8A31523C8031523EE
:10488000C8FF1523C83F1523C23F0423F203C423E6
:10489000F0A00083FC0AAA0FFFC0003FFFFFFFFF4C
:1048A000FFF0003FFF02AA0FFC28008FFC808083EE
:1048B000F0800423F2280423F2281523F2001523A4
:1048C000F23F1523F23F1523F20F0423F08FC42388
:1048D000FC80C083FC28008FFF02AA0FFFF0003F7E
:1048E000FFFFFFFFFFC0003FFC0AAA0FF0A00083FC
:1048F000F2020423C2A00423C8A31523C80315236E
:10490000C8FF1523C83F1523C23F0423F203C42365
:10491000F0A00083FC0AAA0FFFC0003FFFFFFFFFCB
:10492000FFF0003FFF02AA0FFC28008FFC8080836D
:10493000F0800423F2280423F2281523F200152323
:10494000F23F1523F23F1523F20F0423F08FC42307
:10495000FC80C083FC28008FFF02AA0FFFF0003FFD
:10496000FFFFFFFFFFC0003FFC0AAA0FF0A000837B
:10497000F2020423C2A00423C8A31523C8031523ED
:10498000C8FF1523C83F1523C23F0423F203C423E5
:10499000F0A00083FC0AAA0FFFC0003FFFFFFFFF4B
:1049A000FFF0003FFF02AA0FFC28008FFC808083ED
:1049B000F0800423F2280423F2281523F2001523A3
:1049C000F23F1523F23F1523F20F0423F08FC42387
:1049D000FC80C083FC28008FFF02AA0FFFF0003F7D
:1049E000FC00003FFC554A3F00154A3F2A80080062
:1049F00008828008C2A2A828F2AAA208F2A88210FF
:104A0000F2A88213F2AAA203C2A2A8230882A0508D
:104A10002AAA810400222104FF000050FFFFFC03AA
:104A2000FF00000FFF15528FC005528FCAA0020F62
:104A3000C220A003F0A8A823FCAAA803FCAA221362
:104A4000FCAA2210FCAAA808F0A8A828C220A14805
:104A5000CAAA8410C0088413FFC00143FFFFF00FEF
:104A6000FFFFF00FFF000143C0220413CAAA868390
:104A7000C2AAA2A3F0AA8023FCAA1403FCAA1113C1
:104A8000FCAA1110FCAA1408F0AA8128C2AAA00846
:104A9000CAAA8800C0220A3FFC554A3FFC00003FDA
:104AA000FFFFC03FFC00050F0088104F2AAA1A40E4
:104AB0000AAA8A08C2AA8028F2AA1408F2AA111027
:104AC000F2AA1113F2AA1403C2AA81230AAA80230C
:104AD0002AAA08030088528FFC15528FFF00000F8E
:104AE000FFFFF03FFFFC010FFF00A14FFC20A8409B
:104AF000C0AA2048CAAA2228C0AAA208FCAAAA10B2
:104B0000F0A8AA10C2A0A848CA2AA828C0AAA140F2
:104B1000FC088413FFC00413FFFFC143FFFFF00F25
:104B2000FFFFFFFFFFF0003FFC02810FF082A14F6B
:104B300002A8804F2AA8820302AAA210F2AAA20801
:104B4000C2A2A8680A82A00828AAA14002AA8413C7
:104B5000F0220413FF000143FFFFF00FFFFFFFFFF0
:104B6000FFFFF00FFFFFC143FFC00413FC088413D5
:104B7000C0AAA140CA2AA828C2A0A848F0A8AA1082
:104B8000FCAAAA10C0AAA208CAAA2228C0AA204821
:104B9000FC20A840FF00A14FFFFC010FFFFFF03FEA
:104BA000FFFFFFFFFFFFF00FFF000143F0220413A0
:104BB00002AA841328AAA1400A82A008C2A2A86857
:104BC000F2AAA20802AAA2102AA8820302A8804F71
:104BD000F082A14FFC02810FFFF0003FFFFFFFFFBB
:104BE000C000003FCAAA853FC2AA853FC000003F5F
:104BF000C5504400055045141551508415544110BA
:104C0000151441131051508305104003C5504AA09C
:104C1000C1550888F0000888FFFFCAA0FFFFC00345
:104C2000F000000FF2AAA14FF0AAA14FF000010F6F
:104C3000F1541003C1541113C5545483C5551113B5
:104C4000C5451110C4145484C1441014F1542A8071
:104C5000F0556223FC002223FFFF2A83FFFF000F91
:104C6000FFFC003FFFFCAA0FF000808FC155058FAD
:104C7000C55544000515421410550A0415150A10AF
:104C800015550A1315550A0305554213C555440316
:104C9000C155000FF000A14FF2AAA14FF000000F84
:104CA000FFFF000FFFFF2A83FC002023F055416324
:104CB000F1555043C1455213C4154A03C5454A1323
:104CC000C5554A10C5554A04C1555214F1555000F6
:104CD000F055403FC200053FCAAA853FC000003FD3
:104CE000FFFFF03FFFFFF20FF000328FC151028F44
:104CF000C5545003055541101551408415105114E9
:104D00001450400411154AA005550888C555088857
:104D1000C1540AA0F000C003FFFFFFFFFFFFFFFF29
:104D2000FFFFF03FFFFFF20FFC00028FF0544280C4
:104D3000F1551484C1555014C5545104C544140090
:104D4000C5141080C4455104C1554014F1554AA002
:104D5000F0550888FC000888FFFFCAA0FFFFC003C9
:104D6000FFFFFFFFFFFFFFFFF000C003C1540AA0D9
:104D7000C55508880555088811154AA014504004E7
:104D8000151051141551408405554110C554500358
:104D9000C151028FF000328FFFFFF20FFFFFF03F93
:104DA000FFFFC003FFFFCAA0FC000888F055088879
:104DB000F1554AA0C1554014C4455104C514108092
:104DC000C5441400C5545104C1555014F155148400
:104DD000F0544280FC00028FFFFFF20FFFFFF03F14
:104DE000FFFC00FFFFF0A83FFF02AA3FFC2A803F24
:104DF000F0AAA43FF2AAA903C282A110CA0081545A
:104E0000CA048154C282A144F2AAA904F0AAA4004F
:104E1000FC2A803FFF02AA3FFFF0A83FFFFC00FFF3
:104E2000FFF003FFFFC2A0FFFC0AA8FFF0AA00FFEB
:104E3000C2AA90FFCAAAA4030A0A845028122554C1
:104E4000280225440A0A8504CAAAA400C2AA90FF1F
:104E5000F0AA00FFFC0AA8FFFFC2A0FFFFF003FFBB
:104E6000FFFC00FFFFF0A83FFF02AA3FFC2A803FA3
:104E7000F0AAA400F2AAA904C2AAA944CAAAA954E1
:104E8000CAAAA954C2AAA910F2AAA903F0AAA43FC7
:104E9000FC2A803FFF02AA3FFFF0A83FFFFC00FF73
:104EA000FFF003FFFFC2A0FFFC0AA8FFF0AA00FF6B
:104EB000C2AA90FFCAAAA4000AAAA5042AAAA544C5
:104EC0002AAAA5540AAAA450CAAAA403C2AA90FF57
:104ED000F0AA00FFFC0AA8FFFFC2A0FFFFF003FF3B
:104EE000FFFC003FFFF0AA3FFF02883FFC2AA0FF23
:104EF000F082A43FF2048103C2008110CA82A1544F
:104F0000CAAAA954CAAA0144C2A8A804F2A8A11016
:104F1000F0AAA803FC0A80FFFFC00FFFFFFFFFFFFE
:104F2000FFFFFFFFFFF000FFFFC2A8FFFC0A20FF0A
:104F3000F0AA83FFC20A90FFC8020403081224509B
:104F40002A0A85542AAAA5542AA805440AA2A1041B
:104F5000CAA28410C2AAA003F02A03FFFF003FFFE9
:104F6000FFFFFFFFFFC00FFFFC0A80FFF0AAA803AE
:104F7000F2A8A110C2A8A804CAAA0144CAAAA954A6
:104F8000CA82A154C2008110F2048103F082A43FBE
:104F9000FC2AA0FFFF02883FFFF0AA3FFFFC003F72
:104FA000FF003FFFF02A03FFC2AAA003CAA2841099
:104FB0000AA2A1042AA805442AAAA5542A0A8554AB
:104FC00008122450C8020403C20A90FFF0AA83FF0B
:104FD000FC0A20FFFFC2A8FFFFF000FFFFFFFFFF5A
:104FE000FC03C03FFCA00A03FC8A8A20C0A800047E
:104FF000C5001154054A0050150011481500140849
:105000001500140015001150054A0054C5401154F4
:10501000C1504014F0550F00FC003FFFFFFFFFFFA1
:10502000FF00F00FFF280280F022A288C12A0000B2
:10503000C5401154054A00541500115015001400C4
:105040001500140815001148054A0050C5401154B8
:10505000C1504054F0550C10FC003F03FFFFFFFF10
:10506000FFFFFFFFFC000003F0550810C15544543A
:10507000C5555154055550501555411415555114E9
:10508000155551141555411405555050C5555154D9
:10509000C1554154F0552010FC000283FFFFF00F72
:1050A000FFFFFFFFFC0000FFF0550800C15544144E
:1050B000C5555154055550541555411015555114A9
:1050C000155551141555411005555054C555515499
:1050D000C1554154F0550850FC000A03FFFFC03F82
:1050E000FFFF003FFFFF2A3FFF00223FF015283F50
:1050F000C1404800050A0554150011401500140868
:1051000015001148150A015015401054055051540E
:10511000C5555154C1554050F0550C03FC003FFF9C
:10512000FFFFC00FFFFFCA8FFF00088FF0150A03B3
:10513000C1404210050A0148150011081500140865
:1051400015001000150A0148154011500550505423
:10515000C5555154C1554154F0550050FC003C0315
:10516000FC003FFFF0550C03C1554050C55551544C
:105170000550515415401054150A0150150011489E
:105180001500140815001140050A0554C1404800D7
:10519000F015283FFF00223FFFFF2A3FFFFF003F9F
:1051A000FC003C03F0550050C1554154C5555154C5
:1051B0000550505415401150150A014815001000B3
:1051C0001500140815001108050A0148C1404210D5
:1051D000F0150A03FF00088FFFFFCA8FFFFFC00F03
:1051E000FFFFC0FFFF0004FFF02A0403C28080A07D
:1051F0000A1414A8284114A0284140802A1504A8A4
:105200002A1504A8284140A8284114A00A1414888B
:10521000C2800010F0285553FF005543FFFC000FDB
:10522000FFFFF03FFFC0013FFC0A8103F0A02020F8
:10523000C2850528CA104520CA105028CA854128B1
:10524000CA854128CA105000CA104523C2850520CE
:10525000F0A00004FC0A1554FFC01550FFFF000326
:10526000FFFFC0FFFF0004FFF02A0003C2AA8AA0CC
:105270000AAAAA082A2AA8002A8AA8142AA28A0006
:105280002AA28A002A8AA8142A2AA8000AAAAA08F6
:10529000C2AA8AA0F02A0013FF005543FFFC000FAA
:1052A000FFFFF03FFFC0013FFC0A8003F0AAA2A06D
:1052B000C2AAAA08CA8AA800CAA2AA14CAA8A20096
:1052C000CAA8A200CAA2AA14CA8AA800C2AAAA0886
:1052D000F0AAA2A0FC0A8004FFC01550FFFF000343
:1052E000FFFC000FF00C5543C2805553080100131A
:1052F000284145032A15050F2A1500832841452317
:10530000284105202A1480A82A8084A82AAA84A8D3
:105310002AAAA2880A28AA88C8002A20C0FF000357
:10532000FFFF0003FC031550F0A01554C200400419
:10533000CA105140CA854143CA854020CA1051480D
:10534000CA104148CA852028CAA02128CAAAA12873
:10535000CAAAA8A0C28A2AA3F2002883F03F000F9D
:10536000C0FF0003C8002A200A28AA882AAAA28807
:105370002AAA84A82A8084A82A1480A82841052063
:10538000284145232A1500832A15050F2841450386
:1053900008010013C2805553F00C5543FFFC000F69
:1053A000F03F000FF2002883C28A2AA3CAAAA8A04D
:1053B000CAAAA128CAA02128CA852028CA10414803
:1053C000CA105148CA854020CA854143CA1051407D
:1053D000C2004004F0A01554FC031550FFFF000369
:1053E000FFFFC0FFFF0004FFF02A0403C28080A07B
:1053F0000A1414A8284114A0284140802A1504A8A2
:105400002A1504A8284140A8284114A00A14148889
:10541000C2800010F0285553FF005543FFFC000FD9
:10542000FFFFF03FFFC0013FFC0A8103F0A02020F6
:10543000C2850528CA104520CA105028CA854128AF
:10544000CA854128CA105000CA104523C2850520CC
:10545000F0A00004FC0A1554FFC01550FFFF000324
:10546000FFFFC0FFFF0004FFF02A0003C2AA8AA0CA
:105470000AAAAA082A2AA8002A8AA8142AA28A0004
:105480002AA28A002A8AA8142A2AA8000AAAAA08F4
:10549000C2AA8AA0F02A0013FF005543FFFC000FA8
:1054A000FFFFF03FFFC0013FFC0A8003F0AAA2A06B
:1054B000C2AAAA08CA8AA800CAA2AA14CAA8A20094
:1054C000CAA8A200CAA2AA14CA8AA800C2AAAA0884
:1054D000F0AAA2A0FC0A8004FFC01550FFFF000341
:1054E000FFFC000FF00C5543C28055530801001318
:1054F000284145032A15050F2A1500832841452315
:10550000284105202A1480A82A8084A82AAA84A8D1
:105510002AAAA2880A28AA88C8002A20C0FF000355
:10552000FFFF0003FC031550F0A01554C200400417
:10553000CA105140CA854143CA854020CA1051480B
:10554000CA104148CA852028CAA02128CAAAA12871
:10555000CAAAA8A0C28A2AA3F2002883F03F000F9B
:10556000C0FF0003C8002A200A28AA882AAAA28805
:105570002AAA84A82A8084A82A1480A82841052061
:10558000284145232A1500832A15050F2841450384
:1055900008010013C2805553F00C5543FFFC000F67
:1055A000F03F000FF2002883C28A2AA3CAAAA8A04B
:1055B000CAAAA128CAA02128CA852028CA10414801
:1055C000CA105148CA854020CA854143CA1051407B
:1055D000C2004004F0A01554FC031550FFFF000367
:1055E000FFFFC0FFFF0004FFF02A0403C28080A079
:1055F0000A1414A8284114A0284140802A1504A8A0
:105600002A1504A8284140A8284114A00A14148887
:10561000C2800010F0285553FF005543FFFC000FD7
:10562000FFFFF03FFFC0013FFC0A8103F0A02020F4
:10563000C2850528CA104520CA105028CA854128AD
:10564000CA854128CA105000CA104523C2850520CA
:10565000F0A00004FC0A1554FFC01550FFFF000322
:10566000FFFFC0FFFF0004FFF02A0003C2AA8AA0C8
:105670000AAAAA082A2AA8002A8AA8142AA28A0002
:105680002AA28A002A8AA8142A2AA8000AAAAA08F2
:10569000C2AA8AA0F02A0013FF005543FFFC000FA6
:1056A000FFFFF03FFFC0013FFC0A8003F0AAA2A069
:1056B000C2AAAA08CA8AA800CAA2AA14CAA8A20092
:1056C000CAA8A200CAA2AA14CA8AA800C2AAAA0882
:1056D000F0AAA2A0FC0A8004FFC01550FFFF00033F
:1056E000FFFC000FF00C5543C28055530801001316
:1056F000284145032A15050F2A1500832841452313
:10570000284105202A1480A82A8084A82AAA84A8CF
:105710002AAAA2880A28AA88C8002A20C0FF000353
:10572000FFFF0003FC031550F0A01554C200400415
:10573000CA105140CA854143CA854020CA10514809
:10574000CA104148CA852028CAA02128CAAAA1286F
:10575000CAAAA8A0C28A2AA3F2002883F03F000F99
:10576000C0FF0003C8002A200A28AA882AAAA28803
:105770002AAA84A82A8084A82A1480A8284105205F
:10578000284145232A1500832A15050F2841450382
:1057900008010013C2805553F00C5543FFFC000F65
:1057A000F03F000FF2002883C28A2AA3CAAAA8A049
:1057B000CAAAA128CAA02128CA852028CA104148FF
:1057C000CA105148CA854020CA854143CA10514079
:1057D000C2004004F0A01554FC031550FFFF000365
:1057E000C0C0FFFF080803FF22A8503F200A150091
:1057F00020AA85442020A15420288140200AA110FD
:10580000200AA054202881542020A15420AA854495
:10581000200A150022A8503F080803FFC0C0FFFF60
:10582000C0C000000808155422A85400200A100027
:1058300020AA84002020A12820288148200AA040F6
:10584000200AA040202881402020A12020AA8400F6
:10585000200A100022A8540008081554C0C00000F7
:10586000C0C0FFFF080803FF22A8503F20085500D2
:105870002001154420054554200545542005555464
:105880002005555420054554200545542001154454
:105890002008550022A8503F080803FFC0C0FFFFA2
:1058A000C0C000030808155022A85554200815044C
:1058B00020004550200151542001515420015554DD
:1058C00020015554200151542001515420004550CD
:1058D0002008150422A8555408081550C0C000031C
:1058E000FFFFFFFFC00FFFFF0A800000202085049C
:1058F000200AA154200A8114202AA0442028815083
:105900002020A150202AA154200A85542008155493
:1059100020A8550422001400083F00FFC0FFFFFF2D
:10592000C00FFFC00A80000420208514200AA14077
:10593000200A8140202AA148202880282020A10870
:10594000202AA100200A84002008155020A85554C0
:1059500022005554083C1404C0FF00C0FFFFFFFFA5
:10596000C0FFFFFF083F00FF2200140020A85504DD
:1059700020081554200A8554202AA1542020A15023
:1059800020288150202AA044200A8114200AA154F2
:10599000202085040A800000C00FFFFFFFFFFFFFEB
:1059A000FFFFFFFFC0FF00C0083C14042200555455
:1059B00020A8555420081550200A8400202AA10050
:1059C0002020A10820288028202AA148200A8140E0
:1059D000200AA140202085140A800004C00FFFC0C7
:1059E0003D7F63D41CD50E9442350E945A3531FD5B
:1059F00010C0009132060853009311020091330643
:105A00000851009312020E9499034B9A0E94C60308
:105A10004B9A089500E000933D06009336060093EC
:105A2000370618EFC7D40895009137060A950093FA
:105A30003706003009F0089500E000933606009321
:105A400037060895109137061C3019F40DE50093C0
:105A50004007183019F40EE500934007143019F48C
:105A60000FE500934007009137060A95009337062B
:105A7000003009F0089508EF0093400701E006D3D5
:105A800000913C0610913B06011729F000913C065D
:105A90000F5F00933C0600E0009336060093370644
:105AA000089510913706103131F403E00093130686
:105AB00000E100931406009137060A95009337061B
:105AC000003009F0089500E0009336060093370691
:105AD000089510913706103151F402E00093130637
